:020000040000FA
:0400000003EF10F00A
:020004000000FA
:0A0006001C4C0000004C0600504C9A
:100010000600004C0600184C0000004C0600224C64
:100020003800004C06004004000012046000580430
:1000300060001204600016040000120460006A04EC
:1000400030001204600064360000003648004E366E
:1000500048003E3648001E3600000036480026366E
:1000600000000036480066020000000262005602EE
:1000700062003E02620020020000000262006E0286
:1000800000000002620000720000787276003412F4
:100090008600787276000C720000787276008A72A0
:1000A00088000072000046424400464244007E42FE
:1000B0007C00464244000E42000046424400284272
:1000C0008400464244002E2A00002E2A30003C2A9A
:1000D00032002E2A3000142A0000002A3000242A80
:1000E0000000002A30002C6800002C6838003A68B4
:1000F0004A002C68380010680000006838006C68FE
:1001000000000068380002890200000101000002BE
:1001100010000003030040850000000505000007F3
:100120001000000B0B000389000001010100000218
:1001300010000303030040850000050505000007CB
:1001400010000B0B0B0000890000000101000002F1
:1001500010000303030040850000000505000007B0
:100160000000000B0B0000890000000101000002EC
:100170001000830303004085000000050500000710
:100180000000000B0B0000890000010101000002CB
:10019000000003030300408500000505050000077B
:1001A0000000000B000002890200010101000002B2
:1001B000000003030300408500000505050000075B
:1001C00000000B0B07000289000001010100000282
:1001D0000000030303004085000000050500000740
:1001E0000000000B0B000289000001010100000269
:1001F0000000030303004085000000050500000720
:100200000000000B0B00FF7F810CC11161324248DE
:10021000424C620C624CA2442251C215A225023209
:100220004206422EC20EC24E830D8311832583598E
:10023000A34103620366A40CA460A464E549C90D4C
:10024000C961C965AA416A4A8C048C608C646C4A95
:10025000EE414F0610051041106110659005904168
:1002600090619065B209F231F2499226924E530C98
:10027000B30CB310B324B30993069342936293660D
:10028000936A34603464540A740A74621407144F15
:1002900034073724586885F26885F16885F06885E9
:1002A000F33868E90285F468E90085F52089F6A24B
:1002B000002093F6A5F52063F6A5F42063F6A20DC1
:1002C0002093F6A5F02063F6A2112093F6A5F12065
:1002D00063F6A2152093F6A5F22063F6A2092093F7
:1002E000F6A207A02EBD7EF724F3F003BC76F798A4
:1002F000201EFFCA10EDA2042093F6BA8A2063F6EE
:10030000A90085F62089F6A92E201EFFA200E4F69A
:10031000F00ABD8002201EFFE84C08F32018FF20E1
:100320003BFFC91BD002F0D8C908D013E000F00C85
:1003300048201EFF207FF668201EFFCA4C19F3C913
:100340000DF024C97FD004A908D0E19008A90720A6
:100350001EFF4C19F3C92090F4E07FB0F09D80029D
:10036000E8201EFF4C19F3201CFF86F6A20020D0C7
:10037000F4B08DC941D000C944D03620DCF4B02E91
:100380002066F4206FF420DCF4B006206FF44C8D6E
:10039000F3E6FA2089F6A5F82063F6A5F72063F6C0
:1003A0002042F52078F42082F430E84CFAF24C5EDA
:1003B000F4C947D010A5F548A5F448A5F348A5F021
:1003C000A6F1A4F240C94DD05F20DCF4B0572066FE
:1003D000F4206FF420DCF4B006206FF44CDBF3E67D
:1003E000FA2089F6A5F82063F6A5F72063F6A000A9
:1003F000207FF6B1F7C82063F6C010D0F3207FF657
:100400002084F6A000B1F7C82036F5B002A92E204E
:100410001EFFC010D0EF2084F6982078F42082F4DC
:1004200030BF4CFAF24C5EF4C952D0034CA6F2C96C
:1004300053D000C954D000C957D02020DCF4B018E4
:100440002066F420E0F4B010A000A5FB91F7A9010C
:100450002078F4A9574C8CF44C5EF4C93FD005A227
:100460001D4C60F4A2192093F64CFAF2A5FB85F717
:10047000A5FC85F860A5FB85F9A5FC85FA601865E3
:10048000F785F79002E6F86038A5F7E5F9A5F8E5F5
:10049000FA60A20020B4F4A92020B4F4A5F820A8A2
:1004A000F4A5F720A8F4A92020B4F44CFEF2484AA1
:1004B0004A4A4A20B1F4682072F69D8002E886F626
:1004C00060E4F6900160BD8002E8C9619006C97BD6
:1004D000B002295F186020BBF4900160C920F0F6DB
:1004E0001860A004D002A00284FDA00084FB84FC5C
:1004F00020D0F42015F590016006FB26FC06FB26B3
:10050000FC06FB26FC06FB26FC05FB85FBC6FDF076
:100510000820BBF42015F590E018602026F5900A1D
:10052000C9419002E907290F18603860C93AB00341
:10053000C93060C947B003C941601860C92090063E
:10054000C97FB00238601860207FF6A000B1F7AA1A
:100550002063F6207FF6BD00F148482943F00AA049
:1005600001B1F72063F64C66F5207CF6207FF66833
:10057000A82941C941F005982903C903D00AA0025E
:10058000B1F72063F64C85F5207CF6C89848207FAB
:10059000F6A000B1F7AABD00F0AABD01F285FBBD2F
:1005A00000F2204AF6204AF6204AF6207FF66848F4
:1005B0002920F010A000B1F729070930201EFFA95B
:1005C0002C201EFF68481005A928201EFF68482916
:1005D00003F02248C902D005A923201EFFA9242028
:1005E0001EFF68C903D007A002B1F72063F6A0017F
:1005F000B1F72063F668482960C960D005A92C20AE
:100600001EFF6848A82940F012A924201EFF98A0C8
:10061000012920F001C8A972203BFF68482910F089
:1006200005A941201EFF68482908F00AA92C201EB0
:10063000FFA958201EFF68481005A929201EFF6841
:100640002904F00AA92C201EFFA959201EFF68606A
:1006500048291F0940201EFF6846FB6A46FB6A4680
:10066000FB6A46FB6A46FB6A60484A4A4A4A206C73
:10067000F6682072F64C1EFF290FF8186990694041
:10068000D860207FF6A9204C1EFFA97C4C1EFFA934
:100690000D201EFFA90A4C1EFFBDA0F6D001602050
:1006A0001EFFE84C93F650433D002053503D002080
:1006B000503D0020413D0020583D0020593D000D97
:1006C0000A3F000D0A412078787878206F70636FB8
:1006D0006465205B617267735D09417373656D6268
:1006E0006C650D0A442078787878207979797909D1
:1006F00009446973617373656D626C650D0A472007
:100700005B787878785D0909476F746F0D0A4D2022
:100710007878787820797979790909446973706CE7
:100720006179204D656D6F72790D0A52090909448E
:100730006973706C6179205265676973746572734F
:100740000D0A532E2E2E090909533139204C6F61A1
:10075000640D0A54205B787878785D0909547261D9
:1007600063650D0A572078787878207979090957D8
:1007700072697465204D656D6F727900435A494402
:100780003131564E01020408102040800000000064
:100790000000000000000000000000000000000059
:1007A0000000000000000000000000000000000049
:1007B0000000000000000000000000000000000039
:1007C0000000000000000000000000000000000029
:100F0000000000000000D8A2FF9AE88E00028E01C7
:100F1000028E02028E0302A9018D02FE5800A91161
:100F2000D002A9134884FEAC030299420220A7FF15
:100F3000CC0202F0FB8C0302A9058D02FEA4FE6820
:100F40006084FEAC0002CC0102F0FBB9040220A7D1
:100F5000FF8C0002A4FE604C8EF2488A489848D864
:100F6000BABD04012910D0EFAD01FE103A48291096
:100F7000F01CAC0202CC0302F00FB942028D00FE5D
:100F800020A7FF8C02024C88FFA9018D02FE682970
:100F900008F014AD00FEAC010299040220A7FFCCBA
:100FA0000002F0038C010268A868AA6840C8C03E2D
:100FB000D002A0006000000000000000000000005F
:100FC0000000000000000000000000000000000021
:100FD0000000000000000000000000000000000011
:100FE0000000000000000000000000000000000001
:100FF00000000000000000000000000000000000F1
:1010000051FF00FF54FF1C4C0000824C065E504C08
:101010000600824C0608184C4C00804C065E224CA0
:101020003800804C0608400400001204605E58043A
:10103000600012046008160404001204605E6A0472
:10104000300012046008643600000036485E4E36F8
:1010500048003E3648081E3636000036485E2636C2
:10106000540000364808660200007A02625E5602AA
:1010700062003E026208200202007A02625E6E0294
:101080005C003E0262081A720000787276703412B8
:1010900086007872760A0C727200787276708A72A4
:1010A00088007A727A0A46424400464244707E4280
:1010B0007C004642440A0E424200464244702842A6
:1010C00084004642440A2E2A00002E2A30703C2A10
:1010D000328C2E2A300A142A2A00002A3070242A40
:1010E0005274002A300A2C6800002C6838703A6864
:1010F0004A002C68380A10686800006838706C680C
:101100005A000068380A0289020001010101000248
:1011100010000303036140858100010505010007FC
:101120001000030B0B6103890000010101010002A3
:1011300010000303036140858100050505010007D8
:1011400010000B0B0B61008900000001010100027F
:1011500010000303036140858100000505010007BD
:101160000000000B0B610089000001010101000279
:101170001000830303614085810005050501000718
:1011800000008B0B0B61408900000101010100028E
:101190000000030303614085810005050501000788
:1011A0000000030B0B610289020001010101000232
:1011B0000000030303614085810005050501000768
:1011C00000000B0B07610289000001010101000210
:1011D000000003030361408581000005050100074D
:1011E0000000000B0B6102890000010101010002F7
:1011F000000003030361408581000005050100072D
:101200000000000B0B61FF7F810CC111613242486D
:10121000424C620C624CA2442251C215A2250232F9
:101220004206422EC20EC24E830D8311832583597E
:10123000A34103620366A40CA460A464E549C90D3C
:10124000C961C965AA416A4A8C048C608C646C4A85
:10125000EE414F0610051041106110659005904158
:1012600090619065B209F231F2499226924E530C88
:10127000B30CB310B324B3099306934293629366FD
:10128000936A34603464540A740A74621407144F05
:1012900034073724586885F26885F16885F06885D9
:1012A000F33868E90285F468E90085F5207CF6A248
:1012B000002086F6A5F52056F6A5F42056F6A20DD8
:1012C0002086F6A5F02056F6A2112086F6A5F1207C
:1012D00056F6A2152086F6A5F22056F6A20920861B
:1012E000F6A207A02EBD70F724F3F003BC68F798B0
:1012F000201EFFCA10EDA2042086F6BA8A2056F6F8
:1013000064F6207CF6A92E201EFFA200E4F6F00968
:10131000BD8002201EFFE880F32018FF203BFFC99C
:101320001BD002F0DBC908D012E000F00C48201EF0
:10133000FF2072F668201EFFCA80E1C90DF022C9A5
:101340007FD004A908D0E29007A907201EFF80CC17
:10135000C92090F5E07FB0F19D8002E8201EFF805B
:10136000BB201CFF86F6A20020C7F4B093C941D071
:1013700000C944D03520D3F4B02D205DF42066F4AC
:1013800020D3F4B0052066F48002E6FA207CF6A5AE
:10139000F82056F6A5F72056F62037F5206FF420F2
:1013A00079F430E84CFAF24C55F4C947D010A5F561
:1013B00048A5F448A5F348A5F0A6F1A4F240C94D0C
:1013C000D05E20D3F4B056205DF42066F420D3F430
:1013D000B0052066F48002E6FA207CF6A5F82056D7
:1013E000F6A5F72056F6A0002072F6B1F7C82056F1
:1013F000F6C010D0F32072F62077F6A000B1F7C83F
:10140000202BF5B002A92E201EFFC010D0EF2077B0
:10141000F698206FF42079F430BF4CFAF24C55F472
:10142000C952D0034CA6F2C953D000C954D000C948
:1014300057D02020D3F4B018205DF420D7F4B0109A
:10144000A000A5FB91F7A901206FF4A9574C83F4E4
:101450004C55F4C93FD004A21D8002A2192086F683
:101460004CFAF2A5FB85F7A5FC85F860A5FB85F98C
:10147000A5FC85FA601865F785F79002E6F86038F4
:10148000A5F7E5F9A5F8E5FA60A20020ABF4A920DC
:1014900020ABF4A5F8209FF4A5F7209FF4A9202005
:1014A000ABF44CFCF2484A4A4A4A20A8F46820654A
:1014B000F69D8002E886F660E4F6900160BD800249
:1014C000E8C9619006C97BB002295F186020B2F4B8
:1014D000900160C920F0F61860A004D002A0028438
:1014E000FD64FB64FC20C7F4200AF590016006FB54
:1014F00026FC06FB26FC06FB26FC06FB26FC05FB61
:1015000085FBC6FDF00820B2F4200AF590E01860D3
:10151000201BF5900AC9419002E907290F1860388D
:1015200060C93AB003C93060C947B003C941601807
:1015300060C9209006C97FB002386018602072F63A
:10154000A000B1F7AA2056F62072F6BD00F1484877
:101550002943F009A001B1F72056F68003206FF669
:101560002072F668A82941C941F005982903C903EA
:10157000D009A002B1F72056F68003206FF6C89874
:10158000482072F6A000B1F7AABD00F0AABD01F292
:1015900085FBBD00F2203DF6203DF6203DF6207291
:1015A000F668482920F010A000B1F729070930207B
:1015B0001EFFA92C201EFF68481005A928201EFF29
:1015C00068482903F02248C902D005A923201EFF3C
:1015D000A924201EFF68C903D007A002B1F7205636
:1015E000F6A001B1F72056F668482960C960D00519
:1015F000A92C201EFF6848A82940F012A924201E0B
:10160000FF98A0012920F001C8A972203BFF68487B
:101610002910F005A941201EFF68482908F00AA9F1
:101620002C201EFFA958201EFF68481005A929205C
:101630001EFF682904F00AA92C201EFFA959201EAC
:10164000FF686048291F0940201EFF6846FB6A4664
:10165000FB6A46FB6A46FB6A46FB6A60484A4A4A9E
:101660004A205FF6682065F64C1EFF290FF81869BE
:10167000906940D8602072F6A9204C1EFFA97C4CCE
:101680001EFFA90D201EFFA90A4C1EFFBD92F6D019
:101690000160201EFFE880F450433D002053503D80
:1016A0000020503D0020413D0020583D0020593D84
:1016B000000D0A3F000D0A412078787878206F707D
:1016C000636F6465205B617267735D094173736565
:1016D0006D626C650D0A4420787878782079797984
:1016E000790909446973617373656D626C650D0AEC
:1016F00047205B787878785D0909476F746F0D0A29
:101700004D20787878782079797979090944697356
:10171000706C6179204D656D6F72790D0A520909FF
:1017200009446973706C61792052656769737465E7
:1017300072730D0A532E2E2E090909533139204C8C
:101740006F61640D0A54205B787878785D090954DC
:10175000726163650D0A5720787878782079790965
:10176000095772697465204D656D6F727900435A2F
:1017700049443131564E01020408102040800000D7
:101780000000000000000000000000000000000059
:101790000000000000000000000000000000000049
:1017A0000000000000000000000000000000000039
:1017B0000000000000000000000000000000000029
:101F0000000000000000D8A2FF9AE88E00028E01B7
:101F1000028E02028E0302A9018D02FE5800A91151
:101F2000D002A9134884FEAC030299420220A1FF0B
:101F3000CC0202F0FB8C0302A9058D02FEA4FE6810
:101F40006084FEAC0002CC0102F0FBB9040220A1C7
:101F5000FF8C0002A4FE604C8EF248DA5ABABD042F
:101F6000012910D0F2AD01FE1039482910F01BAC48
:101F70000202CC0302F00EB942028D00FE20A1FF46
:101F80008C02028005A9018D02FE682908F014ADBB
:101F900000FEAC010299040220A1FFCC0002F00374
:101FA0008C01027AFA6840C8C03ED002A0006000EE
:101FB0000000000000000000000000000000000021
:101FC0000000000000000000000000000000000011
:101FD0000000000000000000000000000000000001
:101FE00000000000000000000000000000000000F1
:101FF00000000000000000000000000000000000E1
:0620000051FF00FF54FF38
:0A2006000F01386B396B3A6B3B6B2E
:102010003C6B8B6A8D6A96908D9094828B9296928F
:102020008D8294908B80700ED36E9B8CD3A4FED740
:10203000949C948E9F0EAF6E010EB06E080EB86E1B
:10204000200EAC6E900EAB6EAE50AE509496949A3D
:1020500094889494E86AB0D9AFD9B2D9B1D9006A5A
:10206000400E8D9200000000000000000000000003
:102070008D820000000000000000E82EF2D796805C
:1020800000000000000000008CD88D82000080500D
:10209000FC0AFAE181503F0AF7E184A4F5D7956A7A
:1020A000000E8C6E000000007CD88D8200008050F5
:1020B000FD0AEAE181503F0AE7E184A4E5D7956A89
:1020C000100E8C6E000000006CD86C0E70D869D8B1
:1020D000FF0E6DD866D8000E6AD863D8801CD8B4BD
:1020E00004D00006000E63D85CD8000E60D859D822
:1020F000100E5DD800BE10D067D953422D36353052
:1021000032205B31372E30325D0D0A00060EF66E3E
:10211000000EF76EF86A10D057D953422D3635436A
:102120003032205B31372E30325D0D0A0000060E52
:10213000F66E100EF76EF86A016AF00E026E090074
:1021400030D8A90E34D82DD8F55031D82AD88D0ED4
:102150002ED827D801502BD824D8025028D821D8DF
:1021600033D8012AECE11DD84C0E21D81AD8000E24
:102170001ED817D8100E1BD8022AE1E112D86C0E17
:1021800016D80FD8FC0E13D80CD8FF0E10D800AEFE
:1021900003D007D8FF0E0BD804D810D802D80ED819
:1021A00019D08D9295688B800000000012008D82FE
:1021B00084B4956A8C6E0000000012008D8284B495
:1021C0008B900000000012008D8284A48B90000090
:1021D00000001200046A056A066A076A086A096A4A
:1021E0008D9295688B809E500414D8A49492D8B494
:1021F00094828D82000081503E0A16E18050070BC8
:1022000084A40809020DD3D811D01BD02FD041D0FF
:102210009AD0A4D0B4D0BED00FD021D02DD03FD0F2
:1022200098D0A7D0B2D0BCD08B90DAD7AE50956AF8
:102230008C6E00000000D4D78350AD6E000000000B
:10224000CFD7E86A9EBA88099EB89009ABB2040954
:10225000ABB40209956A8C6E00000000C1D7056A14
:10226000066A049A049800000000BAD70552956ADD
:102270008C6E00000000B4D78350056E049A049859
:1022800005A0AED705A2048A0C0B040AD8B40488B2
:10229000A7D70652956A8C6E00000000A1D7835024
:1022A000066E0F0B0A0D210EAF6E000EB06E98D7A2
:1022B0007F0EAF6E380EB06E93D7540EAF6ED00E49
:1022C000B06E8ED70A0EAF6E8E0EB06E89D7990E95
:1022D000AF6E740EB06E84D7290EAF6E680EB06EFE
:1022E0007FD7140EAF6E340EB06E7AD7090EAF6E74
:1022F0001A0EB06E75D7040EAF6E0D0EB06E70D79D
:10230000AD0EAF6E080EB06E6BD7810EAF6E060EBF
:10231000B06E66D7560EAF6E040EB06E61D7400E2B
:10232000AF6E030EB06E5CD72A0EAF6E020EB06EAB
:1023300057D79F0EAF6E010EB06E52D7CF0EAF6E55
:10234000000EB06E4DD7C950956A8C6E000000002B
:1023500047D78350C96E0000000042D7070EC7B0B0
:102360008009C7B42009956A8C6E00000000000047
:1023700037D75F0B076E00000000000031D7085010
:10238000956A8C6E000000002BD78350086E000009
:10239000000026D70952956A8C6E0000000020D7F5
:1023A0008350096E8B18040B8B1A000019D7F35059
:1023B000FD26F450FE2212009EA8FED7AD6E12003C
:1023C0000D0EFADF0A0EF8D7FD50F66EFE50F76ECE
:1023D000FF50F86E0900F55002E0EEDFFBD7F6B0D3
:1023E0000900F650FD6EF750FE6EF850FF6E1200B9
:020000040030CA
:0100010038C6
:0100020018E5
:0100030028D4
:01000500BD3D
:010006008178
:010008000FE8
:01000900C036
:01000A000FE6
:01000B00E014
:01000C000FE4
:01000D0040B2
:00000001FF
