:020000040000FA
:0400000024EF00F0F9
:020004000000FA
:080008009E92100E0B240B6EFA
:100010001BBE116E000E0C220C6E1BBE126E000E6B
:1000200013220D6E1BBE136E000E14220E6E1BBE2D
:10003000146E000E15220F6E1BBE156E000E1622DA
:10004000106E1BBE166E11000F01386B396B3A6BC8
:100050003B6B3C6B8B6A8D6A96908D9094828B92F1
:1000600096928D8294908B80700ED36E9B8CD3A4CD
:10007000FED7949C948E080EB86E200EAC6E900E37
:10008000AB6EAE50AE509496949A948894942A0E87
:10009000C66EC950C950790EBB6E3F0EBC6ABA6EAF
:1000A0009E92E86A006AF28E400E8D920000000077
:1000B00000000000000000008D8200000000000031
:1000C0000000E82EF2D7968000000000000000003B
:1000D00077D88D8200008050FC0AFAE181503F0AF7
:1000E000F7E184A4F5D7956A000E8C6E000000003D
:1000F00067D88D8200008050FD0AEAE181503F0AF6
:10010000E7E184A4E5D7956A100E8C6E000000002C
:1001100057D86C0E5BD854D8FF0E58D851D8000E63
:1001200055D84ED8801CD8B404D00006000E4ED846
:1001300047D8000E4BD844D8100E48D800BE06D081
:100140003A0EF66E060EF76EF86A05D03A0EF66EA7
:10015000160EF76EF86A016AF00E026E090030D8CA
:10016000A90E34D82DD8F55031D82AD88D0E2ED8D6
:1001700027D801502BD824D8025028D821D833D8DA
:10018000012AECE11DD84C0E21D81AD8000E1ED839
:1001900017D8100E1BD8022AE1E112D86C0E16D81F
:1001A0000FD8FC0E13D80CD8FF0E10D800AE03D019
:1001B00007D8FF0E0BD804D810D802D80ED819D003
:1001C0008D9295688B800000000012008D8284B4AF
:1001D000956A8C6E0000000012008D8284B48B90B2
:1001E0000000000012008D8284A48B9000000000AB
:1001F0001200046A056A066A076A086A096A0A6AD6
:100200000B6A0C6A0D6A0E6A0F6A106A116A126A2A
:10021000136A146A156A166A176A186A196A1A6ADA
:100220001B6A1C6A1D6AF28E8D9295688B809E50A7
:10023000380B04100514D8A49492D8B494828D82FB
:10024000000081503E0A02E08B90EED780503F0BB9
:1002500084A44009020DE8D985D08FD0A3D0B5D0B1
:1002600081D08BD09FD0B1D07DD087D09BD0ADD066
:1002700079D083D097D0A9D003D10DD126D131D157
:10028000FFD009D122D12DD1FBD005D11ED129D14A
:10029000F7D001D11AD125D131D13DD148D153D197
:1002A0005ED169D174D17ED188D192D19CD1A7D1B0
:1002B000B1D152D051D050D04FD04ED04DD04CD0E3
:1002C0004BD04AD049D048D047D046D045D044D072
:1002D00043D042D041D040D04BD05DD069D07BD00C
:1002E00047D059D065D077D043D055D061D073D0A6
:1002F0003FD051D05DD06FD0C9D0D8D0ECD0F7D09E
:10030000C5D0D4D0E8D0F3D0C1D0D0D0E4D0EFD095
:10031000BDD0CCD0E0D0EBD0F7D003D10ED119D1E5
:1003200024D12FD13AD144D14ED158D162D16DD1FF
:1003300077D112D011D010D012D011D010D00FD050
:100340000ED00DD00CD00BD00AD009D008D007D0D9
:1003500006D005D004D003D0FF0E956A8C6E000045
:10036000000062D7AE50956A8C6E000000005CD72A
:100370008350AD6E0000000057D7E86A9EBA880926
:100380009EB89009ABB20409ABB40209956A8C6EB1
:100390000000000049D7066A076A059A0598000020
:1003A000000042D70652956A8C6E000000003CD7D0
:1003B0008350066E059A059806A036D706A2058AD0
:1003C0000C0B040AD8B405882FD70752956A8C6E97
:1003D0000000000029D78350076E0F0B0A0D24D9A7
:1003E000210EAF6E000EB06E1FD77F0EAF6E380EAF
:1003F000B06E1AD7540EAF6ED00EB06E15D70A0E6F
:10040000AF6E8E0EB06E10D7990EAF6E740EB06ECA
:100410000BD7290EAF6E680EB06E06D7140EAF6EF6
:10042000340EB06E01D7090EAF6E1A0EB06EFCD648
:10043000040EAF6E0D0EB06EF7D6AD0EAF6E080E99
:10044000B06EF2D6810EAF6E060EB06EEDD6560EC1
:10045000AF6E040EB06EE8D6400EAF6E030EB06EF7
:10046000E3D62A0EAF6E020EB06EDED69F0EAF6ED2
:10047000010EB06ED9D6CF0EAF6E000EB06ED4D6D0
:10048000C950956A8C6E00000000CED68350C96EAC
:1004900000000000C9D60850C7B08009C7B42009C1
:1004A000956A8C6E000000000000BED683505F0B82
:1004B000086EC69AC79CE8B2C78CC79EE8B0C78EC4
:1004C000C68A000000000000AFD60950956A8C6E05
:1004D00000000000A9D683503F0B096EC86E0000D3
:1004E000A3D60A52956A8C6E000000009DD68350F8
:1004F0000A6E8B18040B8B1A000096D61150956A61
:100500008C6E0000000090D68350F10B0B6E116EC4
:100510000000000089D61250956A8C6E0000000021
:1005200083D683500C6E126E000000007DD61350EF
:10053000956A8C6E0000000077D683500D6E136EA6
:100540000000000071D61450956A8C6E0000000007
:100550006BD683500E6E146E0000000065D61550E9
:10056000956A8C6E000000005FD683500F6E156E8A
:100570000000000059D61650956A8C6E00000000ED
:1005800053D68350106E166E000000004DD61750E3
:10059000956A8C6E0000000047D68350176E0000ED
:1005A000000042D61850956A8C6E000000003CD6C0
:1005B0008350186E0000000037D61950956A8C6E73
:1005C0000000000031D68350196E000000002CD6C8
:1005D0001A50956A8C6E0000000026D683501A6E61
:1005E0000000000021D61B50956A8C6E00000000B0
:1005F0001BD68350CF0B1B6E0000000015D61C507D
:10060000956A8C6E000000000FD683501C6E0000AF
:1006100000000AD61D50956A8C6E0000000004D6BA
:100620001D6A0000000000D6F350FD26F450FE22A3
:0A06300012009EA8FED7AD6E120066
:06063A004C00004C000022
:100640004C00004C000078D8A2FF9AE886F086F1B2
:1006500086F286F3A91F8D03FEA9C98D02FEAD00A7
:10066000FEA9018D11FE203FFF582071F2A200204B
:1006700073F22032FFA2142047FFCAD0FAA9034820
:10068000A200201CF2A0102047FF48205CF268C99D
:1006900001F00F88D0F1203FFF6838E901D0E04C2D
:1006A00014F268203FFF2047FFA92A2000FFA9037A
:1006B00048A20C201CF2A0FF2047FF48205CF268F3
:1006C000C901F00F88D0F1203FFF6838E901D0E080
:1006D0004C14F268BA2047FF4848205CF268204773
:1006E000FF4848205CF2682047FF4848205CF268D9
:1006F0002047FF4848205CF268203FFF2047FF6802
:10070000C9AAD00B68C901D00668D00368F0019A65
:10071000A92B2000FFA90348A218201CF22047FFA4
:100720002047FF2047FF2047FFA224201CF2A010F3
:100730002047FF48205CF268C900F013C901F003AC
:1007400088D0ED203FFF6838E901D0CB4C1FF1681D
:10075000203FFF2047FF4C9DF1A92D2000FFA9035A
:1007600048A218201CF22047FF2047FF2047FF2007
:1007700047FFA22A201CF2A0102047FF48205CF26D
:1007800068C900F013C901F00388D0ED203FFF686D
:1007900038E901D0CB4C65F168203FFF2047FFA925
:1007A0003D2000FFA90348A206201CF2A01020470C
:1007B000FF48205CF268C900F013C901F00388D03B
:1007C000ED203FFF6838E901D0DC4C14F268203F8F
:1007D000FF2047FF4CEAF1A95E2000FFA21E201C6B
:1007E000F2A0102047FF48205CF268C900F0098899
:1007F000D0F1203FFF4C14F22047FFAA48205CF2C2
:10080000682047FF48205CF2682047FF48205CF2E0
:10081000682047FF48205CF268203FFF2047FF8A9E
:100820002940D021A9232000FFA212201CF2A00001
:100830002047FF48205CF268C900F00988D0F12009
:100840003FFF4C14F2203FFF2047FF4C11F2A2144F
:100850002073F24C19F2203AFFA006BD2CF2E820DA
:1008600049FF88D0F660400000000095410000007C
:1008700000FF48000001AA875000000200FF770037
:10088000000000FF7A00000000FF6940000000FF48
:100890006900000000FF484A4A4A4A2065F2682978
:1008A0000FF81869906940D84C00FFA211BD80F282
:1008B000D001602000FFE84C73F20D0A4F532F3631
:1008C000353032205B31372E30325D0D0A004E6FED
:1008D000205344206361726420666F756E64006407
:1008E0003C3C181F1C1F1E1F1E1F1F1E1F1E1F000B
:1008F00000000000000000000000000000000000F8
:1009000000000000000000000000000000000000E7
:1009100000000000000000000000000000000000D7
:1009200000000000000000000000000000000000C7
:10153000000000000000000000004884FFA4F399B0
:10154000C0EF20E4FFC4F2F0FC84F3A9058D02FE95
:10155000A4FF686084FFA4F0C4F1F0FCB980EF2020
:10156000E4FF84F0A4FF6048A901D00348A93F8D9F
:1015700012FE686048A900F00348A9048D13FE68B4
:1015800060A9FF8D10FEAD11FE10FBAD10FE60488E
:101590008A489848D8BABD04012910F0036CF8FFB6
:1015A000AD01FE1034482910F019A4F2C4F3F00E76
:1015B000B9C0EF8D00FE20E4FF84F24C89FFA90141
:1015C0008D02FE682908F011AD00FEA4F19980EFAC
:1015D00020E4FFC4F0F00284F1A200F6F4B5F4DDDB
:1015E000A5F2D034A90095F4E8E004D0EEA6F9E025
:1015F0000218D007A5FA2903D00138BDA8F2690066
:10160000E6F8C5F8B012A90185F8E6F9A5F9C90D03
:101610009006A90185F9E6FA68A868AA6840C8C0DA
:1016200040D002A0006000000000000000000000A8
:101630000000E3FFE3FF0CF055FF4C00004C0000FE
:101640004C00004C000078D8A2FF9A64F064F1646A
:10165000F264F3A91F8D03FEA9C98D02FEAD00FE41
:10166000A9018D11FE2032FF5820F9F2A20020FBC3
:10167000F2A93F2029FFA214203AFFCAD0FAA903F9
:1016800048A20020A4F2A010203AFFC901F00D8862
:10169000D0F62032FF683AD0E74C9CF2682032FF47
:1016A000203AFFA90348A20C20A4F2A0FF203AFF91
:1016B000C901F00D88D0F62032FF683AD0E74C9C83
:1016C000F268BA203AFF48203AFF48203AFF482003
:1016D0003AFF482032FF203AFF68C9AAD00B68C9F8
:1016E00001D00668D00368F0019AA90348A2182027
:1016F000A4F2203AFF203AFF203AFF203AFFA2242A
:1017000020A4F2A010203AFFC900F011C901F00393
:1017100088D0F22032FF683AD0D24CEDF068203207
:10172000FF203AFF4C53F1A90348A21820A4F2204D
:101730003AFF203AFF203AFF203AFFA22A20A4F2E3
:10174000A010203AFFC900F011C901F00388D0F2BF
:101750002032FF683AD0D24C27F1682032FF203A7D
:10176000FFA90348A20620A4F2A010203AFFC90056
:10177000F011C901F00388D0F22032FF683AD0E3BB
:101780004C9CF2682032FF203AFF4C82F1A21E20CE
:10179000A4F2A010203AFFC900F00988D0F6203248
:1017A000FF4C9CF2203AFFAA203AFF203AFF203A51
:1017B000FF2032FF203AFF8A2940D017A21220A42E
:1017C000F2A000203AFFC900F00988D0F62032FFCD
:1017D0004C9CF22032FF203AFFA9032029FF64DE4F
:1017E00064DF64E064E1A9E020D6F1A203BDC6E1B4
:1017F00095D4BDCAE195D8CA10F3A2D4208AF2A923
:10180000E020D6F1E6DFE6DFA9E020D6F14CD3F107
:1018100064DC85DDA9034820F9F2A93C2000FFA57E
:10182000E120E4F2A5E020E4F2A5DF20E4F2A5DE69
:1018300020E4F2202DFFA951203CFFA203B5DE20B9
:101840003CFFCA10F88A203CFFA000203AFFC9FEE6
:10185000F00F88D0F62032FF203AFF683AD0B73830
:101860006068A00098291FD01120F9F2A93020004B
:10187000FF9820E4F2A93A2000FF203AFF91DC48CB
:1018800020E4F268C8D0DDE6DD98291FD01120F9E8
:10189000F2A9312000FF9820E4F2A93A2000FF20AD
:1018A0003AFF91DC4820E4F268C8D0DD203AFF48D6
:1018B00020E4F268203AFF4820E4F2682032FF205A
:1018C0003AFF186064DEB5000A85DFB5012A85E0BD
:1018D000B5022A85E160A21520FBF24CA1F2202D71
:1018E000FFA006BDB4F2E8203CFF88D0F6604000BF
:1018F000000000954100000000FF48000001AA8799
:101900005000000200FF7700000000FF7A00000096
:1019100000FF6940000000FF6900000000FF484A26
:101920004A4A4A20EDF268290FF81869906940D8B0
:101930004C00FFA212BD07F3D001602000FFE88039
:10194000F40D0A4F532F3635433032205B31372E9A
:1019500030335D0D0A004E6F205344206361726482
:1019600020666F756E6400643C3C181F1C1F1E1FB0
:101970001E1F1F1E1F1E1F00000000000000000091
:101980000000000000000000000000000000000057
:101990000000000000000000000000000000000047
:1019A0000000000000000000000000000000000037
:1019B0000000000000000000000000000000000027
:10253000000000000000000000005A48A4F3994089
:10254000EF20CFFFC4F2F0FC84F3A9058D02FE68F2
:102550007A605AA4F0C4F1F0FCB900EF20CFFF84F8
:10256000F07A608D12FE6048A900F00348A9048D3E
:1025700013FE6860A9FF8D10FEAD11FE10FBAD10BB
:10258000FE6048DA5ABABD04012910F0036CF8FF66
:10259000AD01FE1033482910F018A4F2C4F3F00D79
:1025A000B940EF8D00FE20CFFF84F28005A9018D98
:1025B00002FE682908F011AD00FEA4F19900EF2099
:1025C000CFFFC4F0F00284F1A200F6F4B5F4DD2DE3
:1025D000F3D03274F4E8E004D0F0A6F9E00218D0A9
:1025E00007A5FA2903D00138BD30F36900E6F8C524
:1025F000F8B012A90185F8E6F9A5F9C90D9006A968
:102600000185F9E6FA7AFA6840C8C040D002A00015
:10261000600000000000000000000000000000005A
:1026200000000000000000000000000000000000AA
:0A2630000000CEFFCEFF0CF048FFC3
:020000040030CA
:0100010038C6
:0100020018E5
:0100030028D4
:01000500BD3D
:010006008178
:010008000FE8
:01000900C036
:01000A000FE6
:01000B00E014
:01000C000FE4
:01000D0040B2
:00000001FF
