:020000040000FA
:0400000024EF00F0F9
:020004000000FA
:080008009E92100E0B240B6EFA
:100010001BBE116E000E0C220C6E1BBE126E000E6B
:1000200013220D6E1BBE136E000E14220E6E1BBE2D
:10003000146E000E15220F6E1BBE156E000E1622DA
:10004000106E1BBE166E11000F01386B396B3A6BC8
:100050003B6B3C6B8B6A8D6A96908D9094828B92F1
:1000600096928D8294908B80700ED36E9B8CD3A4CD
:10007000FED7949C948E080EB86E200EAC6E900E37
:10008000AB6EAE50AE509496949A948894942A0E87
:10009000C66E790EBB6E3F0EBC6ABA6E9E92E86A5F
:1000A000006AF28E400E8D920000000000000000F9
:1000B000000000008D820000000000000000E82E1B
:1000C000F2D79680000000000000000077D88D82F3
:1000D00000008050FC0AFAE181503F0AF7E184A455
:1000E000F5D7956A000E8C6E0000000067D88D82EF
:1000F00000008050FD0AEAE181503F0AE7E184A454
:10010000E5D7956A100E8C6E0000000057D86C0E73
:100110005BD854D8FF0E58D851D8000E55D84ED8B9
:10012000801CD8B404D00006000E4ED847D8000E6C
:100130004BD844D8100E48D800BE06D0240EF66E18
:10014000060EF76EF86A05D0240EF66E160EF76EE0
:10015000F86A016AF00E026E090030D8A90E34D890
:100160002DD8F55031D82AD88D0E2ED827D8015049
:100170002BD824D8025028D821D833D8012AECE132
:100180001DD84C0E21D81AD8000E1ED817D8100E24
:100190001BD8022AE1E112D86C0E16D80FD8FC0E3B
:1001A00013D80CD8FF0E10D800AE03D007D8FF0E1E
:1001B0000BD804D810D802D80ED819D08D929568D3
:1001C0008B800000000012008D8284B4956A8C6ED2
:1001D0000000000012008D8284B48B9000000000AB
:1001E00012008D8284A48B90000000001200046A2B
:1001F000056A066A076A086A096A0A6A0B6A0C6A6B
:100200000D6A0E6A0F6A106A116A126A136A146A1A
:10021000156A166A176A186A196A1A6A1B6A1C6ACA
:100220001D6AF28E8D9295688B809E50380B04105B
:100230000514D8A49492D8B494828D820000815081
:100240003E0A02E08B90EED780503F0B84A4400919
:10025000020DDFD985D08FD0A3D0B5D081D08BD07F
:100260009FD0B1D07DD087D09BD0ADD079D083D076
:1002700097D0A9D003D10DD11DD128D1FFD009D15C
:1002800019D124D1FBD005D115D120D1F7D001D17E
:1002900011D11CD128D134D13FD14AD155D160D10F
:1002A0006BD175D17FD189D193D19ED1A8D152D0B4
:1002B00051D050D04FD04ED04DD04CD04BD04AD052
:1002C00049D048D047D046D045D044D043D042D082
:1002D00041D040D04BD05DD069D07BD047D059D0F1
:1002E00065D077D043D055D061D073D03FD051D0B6
:1002F0005DD06FD0C9D0D8D0E3D0EED0C5D0D4D0A7
:10030000DFD0EAD0C1D0D0D0DBD0E6D0BDD0CCD0C9
:10031000D7D0E2D0EED0FAD005D110D11BD126D162
:1003200031D13BD145D14FD159D164D16ED112D009
:1003300011D010D012D011D010D00FD00ED00DD0BF
:100340000CD00BD00AD009D008D007D006D005D0E9
:1003500004D003D0FF0E956A8C6E0000000062D7B7
:10036000AE50956A8C6E000000005CD78350AD6E75
:100370000000000057D7E86A9EBA88099EB8900925
:10038000ABB20409ABB40209956A8C6E00000000A0
:1003900049D7066A076A059A05980000000042D707
:1003A0000652956A8C6E000000003CD78350066EA2
:1003B000059A059806A036D706A2058A0C0B040AF2
:1003C000D8B405882FD70752956A8C6E00000000BC
:1003D00029D78350076E0F0B0A0D1BD9210EAF6E64
:1003E000000EB06E1FD77F0EAF6E380EB06E1AD7EC
:1003F000540EAF6ED00EB06E15D70A0EAF6E8E0EC5
:10040000B06E10D7990EAF6E740EB06E0BD7290E6A
:10041000AF6E680EB06E06D7140EAF6E340EB06EAF
:1004200001D7090EAF6E1A0EB06EFCD6040EAF6E79
:100430000D0EB06EF7D6AD0EAF6E080EB06EF2D6E2
:10044000810EAF6E060EB06EEDD6560EAF6E040E78
:10045000B06EE8D6400EAF6E030EB06EE3D62A0E35
:10046000AF6E020EB06EDED69F0EAF6E010EB06E96
:10047000D9D6CF0EAF6E000EB06ED4D6C950956AE5
:100480008C6E00000000CED68350C96E00000000C4
:10049000C9D6080EC7B08009C7B42009956A8C6E0A
:1004A000000000000000BED65F0B086E00000000D8
:1004B0000000B8D60950956A8C6E00000000B2D6D4
:1004C00083503F0B096EC86E0000ACD60A52956A85
:1004D0008C6E00000000A6D683500A6E8B18040BA9
:1004E0008B1A00009FD61150956A8C6E0000000098
:1004F00099D68350F10B0B6E116E0000000092D65E
:100500001250956A8C6E000000008CD683500C6EE1
:10051000126E0000000086D61350956A8C6E0000A3
:10052000000080D683500D6E136E000000007AD656
:100530001450956A8C6E0000000074D683500E6EC5
:10054000146E000000006ED61550956A8C6E000087
:10055000000068D683500F6E156E0000000062D652
:100560001650956A8C6E000000005CD68350106EA9
:10057000166E0000000056D61750956A8C6E00006B
:10058000000050D68350176E000000004BD6185064
:10059000956A8C6E0000000045D68350186E0000EE
:1005A000000040D61950956A8C6E000000003AD6C3
:1005B0008350196E0000000035D61A50956A8C6E73
:1005C000000000002FD683501A6E000000002AD6CB
:1005D0001B50956A8C6E0000000024D68350CF0B10
:1005E0001B6E000000001ED61C50956A8C6E000029
:1005F000000018D683501C6E0000000013D61D505A
:10060000956A8C6E000000000DD61D6A0000000087
:1006100009D6F350FD26F450FE2212009EA8FED704
:04062000AD6E1200A9
:0C0624004C00004C00004C00004C00009A
:10063000D8A2FF9AE886F086F186F286F3A91F8D8C
:1006400003FEA9C98D02FEAD00FEA9008D11FE209A
:1006500039FF582047F0A2002049F02030FFA20ABD
:10066000A913203FFFCAD0F84C44F0A211BD56F0A8
:10067000D001602000FFE84C49F00D0A4F532F369F
:10068000353032205B31372E30325D0D0A00643C4C
:100690003C181F1C1F1E1F1E1F1F1E1F1E1F000099
:1006A000000000000000000000000000000000004A
:1006B000000000000000000000000000000000003A
:1006C000000000000000000000000000000000002A
:1006D000000000000000000000000000000000001A
:10152000000000004884FFA4F399C0EF20DAFFC454
:10153000F2F0FC84F3A9058D02FEA4FF686084FF2D
:10154000A4F0C4F1F0FCB980EF20DAFF84F0A4FF2E
:1015500060A9012CA9278D12FE60A9002CA9048D79
:1015600013FE608D10FEAD11FE10FBAD10FE604845
:101570008A489848D8BABD04012910F0036CF8FFD6
:10158000AD01FE1034482910F019A4F2C4F3F00E96
:10159000B9C0EF8D00FE20DAFF84F24C7FFFA90175
:1015A0008D02FE682908F011AD00FEA4F19980EFCC
:1015B00020DAFFC4F0F00284F1A200F6F4B5F4DD05
:1015C0006AF0D034A90095F4E8E004D0EEA6F9E082
:1015D0000218D007A5FA2903D00138BD6DF06900C3
:1015E000E6F8C5F8B012A90185F8E6F9A5F9C90D24
:1015F0009006A90185F9E6FA68A868AA6840C8C0FB
:1016000040D002A0006000000000000000000000C8
:10161000000000000000000000000000D9FFD9FF1A
:101620000CF04BFF4C00004C00004C00004C000044
:10163000D8A2FF9AE886F086F186F286F3A91F8D7C
:1016400003FEA9C98D02FEAD00FEA9008D11FE208A
:1016500039FF582047F0A2002049F02030FFA20AAD
:10166000A913203FFFCAD0F84C44F0A212BD55F098
:10167000D001602000FFE880F40D0A4F532F36356B
:10168000433032205B31372E30325D0D0A00643C2E
:101690003C181F1C1F1E1F1E1F1F1E1F1E1F000089
:1016A000000000000000000000000000000000003A
:1016B000000000000000000000000000000000002A
:1016C000000000000000000000000000000000001A
:1016D000000000000000000000000000000000000A
:10252000000000004884FFA4F399C0EF20D4FFC44A
:10253000F2F0FC84F3A9058D02FEA4FF686084FF1D
:10254000A4F0C4F1F0FCB980EF20D4FF84F0A4FF24
:1025500060A9012CA9278D12FE60A9002CA9048D69
:1025600013FE608D10FEAD11FE10FBAD10FE604835
:10257000DA5ABABD04012910F0036CF8FFAD01FE70
:102580001033482910F018A4F2C4F3F00DB9C0EFCD
:102590008D00FE20D4FF84F28005A9018D02FE6823
:1025A0002908F011AD00FEA4F19980EF20D4FFC4FA
:1025B000F0F00284F1A200F6F4B5F4DD6AF0D03454
:1025C000A90095F4E8E004D0EEA6F9E00218D007DF
:1025D000A5FA2903D00138BD6DF06900E6F8C5F809
:1025E000B012A90185F8E6F9A5F9C90D9006A9016F
:1025F00085F9E6FA7AFA6840C8C040D002A00060C7
:1026000000000000000000000000000000000000CA
:10261000000000000000000000000000D3FFD3FF16
:042620000CF04BFF70
:020000040030CA
:0100010038C6
:0100020018E5
:0100030028D4
:01000500BD3D
:010006008178
:010008000FE8
:01000900C036
:01000A000FE6
:01000B00E014
:01000C000FE4
:01000D0040B2
:00000001FF
