:020000040000FA
:0400000024EF00F0F9
:020004000000FA
:080008009E92100E0C240C6EF8
:100010001CBE126E000E0D220D6E1CBE136E000E65
:1000200014220E6E1CBE146E000E15220F6E1CBE26
:10003000156E000E1622106E1CBE166E000E1722D4
:10004000116E1CBE176E11000F01386B396B3A6BC5
:100050003B6B3C6B8B6A8D6A96908D9094828B92F1
:1000600096928D8294908B80700ED36E9B8CD3A4CD
:10007000FED7949C948E080EB86E200EAC6E900E37
:10008000AB6EAE50AE509496949A948894942A0E87
:10009000C66EC950C950790EBB6E3F0EBC6ABA6EAF
:1000A0009E92006A400E8D92000000000000000049
:1000B000000000008D820000000000000000E82E1B
:1000C000F2D79680000000000000000081D88D82E9
:1000D00000008050FC0AFAE18150FF0AF7E184A495
:1000E000F5D7956A000E8C6E0000000071D88D82E5
:1000F00000008050FD0AEAE18150FF0AE7E184A494
:10010000E5D7956A100E8C6E0000000061D86C0E69
:1001100065D85ED8FF0E62D85BD8FF0E5FD858D87E
:100120008150100A04E10006FF0E58D851D8000E85
:1001300055D84ED88150016E100E50D800BE08D050
:1001400001500CE0480EF66E060EF76EF86A0BD002
:10015000480EF66E160EF76EF86A05D0480EF66E6B
:10016000260EF76EF86A026AF00E036E090030D8A8
:10017000A90E34D82DD8F55031D82AD88D0E2ED8C6
:1001800027D802502BD824D8035028D821D833D8C8
:10019000022AECE11DD84C0E21D81AD8000E1ED828
:1001A00017D8100E1BD8032AE1E112D86C0E16D80E
:1001B0000FD8FC0E13D80CD8FF0E10D800AE03D009
:1001C00007D8FF0E0BD804D810D802D80ED819D0F3
:1001D0008D9295688B800000000012008D8284B49F
:1001E000956A8C6E0000000012008D8284B48B90A2
:1001F0000000000012008D8284A48B90000000009B
:100200001200056A066A076A086A096A0A6A0B6ABE
:100210000C6A0D6A0E6A0F6A106A116A126A136A12
:10022000146A156A166A176A186A196A1A6A1B6AC2
:100230001C6A1D6A1E6AF28E8D9295688B809E5094
:10024000380B05100614D8A49492D8B494828D82E9
:1002500000008150FF0A02E08B90EED78050E8BE8C
:10026000FBD7E8BCF9D784A44009020DE8D985D0B2
:100270008FD0A3D0B5D081D08BD09FD0B1D07DD03E
:1002800087D09BD0ADD079D083D097D0A9D003D1DF
:100290000DD126D131D1FFD009D122D12DD1FBD022
:1002A00005D11ED129D1F7D001D11AD125D131D113
:1002B0003DD148D153D15ED169D174D17ED188D19D
:1002C00092D19CD1A7D1B1D152D051D050D04FD0E2
:1002D0004ED04DD04CD04BD04AD049D048D047D04A
:1002E00046D045D044D043D042D041D040D04BD06E
:1002F0005DD069D07BD047D059D065D077D043D07E
:1003000055D061D073D03FD051D05DD06FD0C9D01F
:10031000D8D0ECD0F7D0C5D0D4D0E8D0F3D0C1D06D
:10032000D0D0E4D0EFD0BDD0CCD0E0D0EBD0F7D05F
:1003300003D10ED119D124D12FD13AD144D14ED1EC
:1003400058D162D16DD177D112D011D010D012D046
:1003500011D010D00FD00ED00DD00CD00BD00AD0B1
:1003600009D008D007D006D005D004D003D0FF0EA6
:10037000956A8C6E000000005FD7AE50956A8C6E57
:100380000000000059D78350AD6E0000000054D724
:10039000E86A9EBA88099EB89009ABB20409ABB46A
:1003A0000209956A8C6E0000000046D7076A086A49
:1003B000069A0698000000003FD70752956A8C6E97
:1003C0000000000039D78350076E069A069807A0F0
:1003D00033D707A2068A0C0B040AD8B406882CD798
:1003E0000852956A8C6E0000000026D78350086E74
:1003F0000F0B0A0D24D9210EAF6E000EB06E1CD764
:100400007F0EAF6E380EB06E17D7540EAF6ED00E93
:10041000B06E12D70A0EAF6E8E0EB06E0DD7990E5B
:10042000AF6E740EB06E08D7290EAF6E680EB06E48
:1004300003D7140EAF6E340EB06EFED6090EAF6E3B
:100440001A0EB06EF9D6040EAF6E0D0EB06EF4D665
:10045000AD0EAF6E080EB06EEFD6810EAF6E060E0B
:10046000B06EEAD6560EAF6E040EB06EE5D6400EF4
:10047000AF6E030EB06EE0D62A0EAF6E020EB06EF7
:10048000DBD69F0EAF6E010EB06ED6D6CF0EAF6E1E
:10049000000EB06ED1D6C950956A8C6E0000000077
:1004A000CBD68350C96E00000000C6D60950C7B035
:1004B0008009C7B42009956A8C6E00000000000016
:1004C000BBD683505F0B096EC69AC79CE8B2C78C37
:1004D000C79EE8B0C78EC68A000000000000ACD6F8
:1004E0000A50956A8C6E00000000A6D683503F0B20
:1004F0000A6EC86E0000A0D60B52956A8C6E000082
:1005000000009AD683500B6E8B18040B8B1A0000D8
:1005100093D61250956A8C6E000000008DD68350E1
:10052000F10B0C6E126E0000000086D61350956A17
:100530008C6E0000000080D683500D6E136E00009C
:1005400000007AD61450956A8C6E0000000074D6B4
:1005500083500E6E146E000000006ED61550956A22
:100560008C6E0000000068D683500F6E156E000080
:10057000000062D61650956A8C6E000000005CD6B2
:100580008350106E166E0000000056D61750956A04
:100590008C6E0000000050D68350116E176E000064
:1005A00000004AD61850956A8C6E0000000044D6B0
:1005B0008350186E000000003FD61950956A8C6E6B
:1005C0000000000039D68350196E0000000034D6B8
:1005D0001A50956A8C6E000000002ED683501A6E59
:1005E0000000000029D61B50956A8C6E00000000A8
:1005F00023D683501B6E000000001ED61C50956A47
:100600008C6E0000000018D68350CF0B1C6E0000CB
:10061000000012D61D50956A8C6E000000000CD6AA
:1006200083501D6E0000000007D61E50956A8C6E28
:100630000000000001D61E6A00000000FDD5F35046
:08064000FD26F450FE22120019
:080648001C4C0000004C0600F0
:10065000504C0600004C0600184C0000004C0600F0
:10066000224C3800004C06004004000012046000D8
:1006700058046000120460001604000012046000B8
:100680006A0430001204600064360000003648003E
:100690004E3648003E3648001E3600000036480000
:1006A00026360000003648006602000000026200A4
:1006B000560262003E026200200200000002620058
:1006C0006E02000000026200007200007872760084
:1006D00034128600787276000C7200007872760010
:1006E0008A7288000072000046424400464244007C
:1006F0007E427C00464244000E42000046424400D6
:1007000028428400464244002E2A00002E2A30004F
:100710003C2A32002E2A3000142A0000002A300021
:10072000242A0000002A30002C6800002C683800C1
:100730003A684A002C6838001068000000683800E9
:100740006C680000006838000289020000010100A6
:1007500000021000000303004085000000050500B2
:1007600000071000000B0B000389000001010100CD
:10077000000210000303030040850000050505008A
:10078000000710000B0B0B000089000000010100A6
:10079000000210000303030040850000000505006F
:1007A00000070000000B0B000089000000010100A1
:1007B00000021000830303004085000000050500CF
:1007C00000070000000B0B00008900000101010080
:1007D000000200000303030040850000050505003A
:1007E00000070000000B0000028902000101010067
:1007F000000200000303030040850000050505001A
:10080000000700000B0B0700028900000101010036
:1008100000020000030303004085000000050500FE
:1008200000070000000B0B0002890000010101001D
:1008300000020000030303004085000000050500DE
:1008400000070000000B0B00FF7F810CC11161321B
:100850004248424C620C624CA2442251C215A2256D
:1008600002324206422EC20EC24E830D83118325F0
:100870008359A34103620366A40CA460A464E54900
:10088000C90DC961C965AA416A4A8C048C608C642F
:100890006C4AEE414F06100510411061106590053D
:1008A000904190619065B209F231F2499226924EE0
:1008B000530CB30CB310B324B30993069342936261
:1008C0009366936A34603464540A740A7462140739
:1008D000144F34073724586885F26885F16885F02D
:1008E0006885F33868E90285F468E90085F52089B0
:1008F000F6A2002093F6A5F52063F6A5F42063F692
:10090000A20D2093F6A5F02063F6A2112093F6A580
:10091000F12063F6A2152093F6A5F22063F6A20952
:100920002093F6A207A02EBD93F724F3F003BC8B0F
:10093000F798202BFFCA10EDA2042093F6BA8A2064
:1009400063F6A90085F62089F6A92E202BFFA200C8
:10095000E4F6F00ABD8002202BFFE84C08F32025C6
:10096000FF2048FFC91BD002F0D8C908D013E0000F
:10097000F00C48202BFF207FF668202BFFCA4C1973
:10098000F3C90DF024C97FD004A908D0E19008A9CB
:1009900007202BFF4C19F3C92090F4E07FB0F09DA5
:1009A0008002E8202BFF4C19F32029FF86F6A200D5
:1009B00020D0F4B08DC941D000C944D03620DCF439
:1009C000B02E2066F4206FF420DCF4B006206FF423
:1009D0004C8DF3E6FA2089F6A5F82063F6A5F720FA
:1009E00063F62042F52078F42082F430E84CFAF2E5
:1009F0004C5EF4C947D010A5F548A5F448A5F348C6
:100A0000A5F0A6F1A4F240C94DD05F20DCF4B057A8
:100A10002066F4206FF420DCF4B006206FF44CDB89
:100A2000F3E6FA2089F6A5F82063F6A5F72063F629
:100A3000A000207FF6B1F7C82063F6C010D0F320E5
:100A40007FF62084F6A000B1F7C82036F5B002A9E1
:100A50002E202BFFC010D0EF2084F6982078F420B1
:100A600082F430BF4CFAF24C5EF4C952D0034CA66B
:100A7000F2C953D000C954D000C957D02020DCF4AB
:100A8000B0182066F420E0F4B010A000A5FB91F7A8
:100A9000A9012078F4A9574C8CF44C5EF4C93FD0DE
:100AA00005A21D4C60F4A2192093F64CFAF2A5FBA6
:100AB00085F7A5FC85F860A5FB85F9A5FC85FA609E
:100AC0001865F785F79002E6F86038A5F7E5F9A50F
:100AD000F8E5FA60A20020B4F4A92020B4F4A5F847
:100AE00020A8F4A5F720A8F4A92020B4F44CFEF225
:100AF000484A4A4A4A20B1F4682072F69D8002E8CA
:100B000086F660E4F6900160BD8002E8C961900657
:100B1000C97BB002295F186020BBF4900160C92036
:100B2000F0F61860A004D002A00284FDA00084FBAF
:100B300084FC20D0F42015F590016006FB26FC060D
:100B4000FB26FC06FB26FC06FB26FC05FB85FBC6FC
:100B5000FDF00820BBF42015F590E018602026F584
:100B6000900AC9419002E907290F18603860C93A14
:100B7000B003C93060C947B003C941601860C920DB
:100B80009006C97FB00238601860207FF6A000B1DF
:100B9000F7AA2063F6207FF6BD00F148482943F00C
:100BA0000AA001B1F72063F64C66F5207CF6207FA1
:100BB000F668A82941C941F005982903C903D00A5C
:100BC000A002B1F72063F64C85F5207CF6C8984862
:100BD000207FF6A000B1F7AABD00F0AABD01F28502
:100BE000FBBD00F2204AF6204AF6204AF6207FF6A6
:100BF00068482920F010A000B1F729070930202B00
:100C0000FFA92C202BFF68481005A928202BFF687E
:100C1000482903F02248C902D005A923202BFFA9A7
:100C200024202BFF68C903D007A002B1F72063F688
:100C3000A001B1F72063F668482960C960D005A912
:100C40002C202BFF6848A82940F012A924202BFF54
:100C500098A0012920F001C8A9722048FF684829FE
:100C600010F005A941202BFF68482908F00AA92C9B
:100C7000202BFFA958202BFF68481005A929202BFD
:100C8000FF682904F00AA92C202BFFA959202BFF6B
:100C9000686048291F0940202BFF6846FB6A46FB15
:100CA0006A46FB6A46FB6A46FB6A60484A4A4A4A09
:100CB000206CF6682072F64C2BFF290FF81869900B
:100CC0006940D860207FF6A9204C2BFFA97C4C2BD3
:100CD000FFA90D202BFFA90A4C2BFFBDA0F6D001C8
:100CE00060202BFFE84C93F650433D002053503DCD
:100CF0000020503D0020413D0020583D0020593D3E
:100D0000000D0A3F000D0A412078787878206F7036
:100D1000636F6465205B617267735D09417373651E
:100D20006D626C650D0A442078787878207979793D
:100D3000790909446973617373656D626C650D0AA5
:100D400047205B787878785D0909476F746F0D0AE2
:100D50004D20787878782079797979090944697310
:100D6000706C6179204D656D6F72790D0A520909B9
:100D700009446973706C61792052656769737465A1
:100D800072730D0A532E2E2E090909533139204C46
:100D90006F61640D0A54205B787878785D09095496
:100DA000726163650D0A572078787878207979091F
:100DB000095772697465204D656D6F7279000D0A6F
:100DC0000A426F6F742036353032205B31372E3057
:100DD000395D00435A49443131564E01020408102E
:100DE0002040800000000000000000000000000023
:100DF00000000000000000000000000000000000F3
:100E000000000000000000000000000000000000E2
:100E100000000000000000000000000000000000D2
:100E200000000000000000000000000000000000C2
:101540000000000000000000D8A2FF9AE88E000210
:101550008E01028E02028E0302A91F8D03FEA9C90D
:101560008D02FEAD00FE58A2D62093F600A911D040
:1015700002A9134884FEAC030299420220B4FFCCB6
:101580000202F0FB8C0302A9058D02FEA4FE686036
:1015900084FEAC0002CC0102F0FBB9040220B4FFCF
:1015A0008C0002A4FE604C8EF2488A489848D8BA53
:1015B000BD04012910D0EFAD01FE103A482910F00A
:1015C0001CAC0202CC0302F00FB942028D00FE20D7
:1015D000B4FF8C02024C95FFA9018D02FE68290818
:1015E000F014AD00FEAC010299040220B4FFCC005F
:1015F00002F0038C010268A868AA6840C8C03ED007
:1016000002A00060000000000000000000000000D8
:1016100000000000000000000000000000000000CA
:1016200000000000000000000000000000000000BA
:1016300000000000000000000000000000000000AA
:1016400000005EFF00FF61FF1C4C0000824C065E44
:10165000504C0600824C0608184C4C00804C065E2C
:10166000224C3800804C0608400400001204605EE2
:101670005804600012046008160404001204605E3E
:101680006A04300012046008643600000036485EC8
:101690004E3648003E3648081E3636000036485E54
:1016A0002636540000364808660200007A02625E60
:1016B000560262003E026208200202007A02625E66
:1016C0006E025C003E0262081A7200007872767048
:1016D000341286007872760A0C7272007872767014
:1016E0008A7288007A727A0A4642440046424470FE
:1016F0007E427C004642440A0E424200464244700A
:10170000284284004642440A2E2A00002E2A3070C5
:101710003C2A328C2E2A300A142A2A00002A3070E1
:10172000242A5274002A300A2C6800002C68387071
:101730003A684A002C68380A1068680000683870F7
:101740006C685A000068380A028902000101010130
:1017500000021000030303614085810001050501BB
:1017600000071000030B0B61038900000101010158
:101770000002100003030361408581000505050197
:10178000000710000B0B0B61008900000001010134
:10179000000210000303036140858100000505017C
:1017A00000070000000B0B6100890000010101012E
:1017B00000021000830303614085810005050501D7
:1017C000000700008B0B0B61408900000101010143
:1017D0000002000003030361408581000505050147
:1017E00000070000030B0B610289020001010101E7
:1017F0000002000003030361408581000505050127
:10180000000700000B0B07610289000001010101C4
:10181000000200000303036140858100000505010B
:1018200000070000000B0B610289000001010101AB
:1018300000020000030303614085810000050501EB
:1018400000070000000B0B61FF7F810CC1116132AA
:101850004248424C620C624CA2442251C215A2255D
:1018600002324206422EC20EC24E830D83118325E0
:101870008359A34103620366A40CA460A464E549F0
:10188000C90DC961C965AA416A4A8C048C608C641F
:101890006C4AEE414F06100510411061106590052D
:1018A000904190619065B209F231F2499226924ED0
:1018B000530CB30CB310B324B30993069342936251
:1018C0009366936A34603464540A740A7462140729
:1018D000144F34073724586885F26885F16885F01D
:1018E0006885F33868E90285F468E90085F5207CAD
:1018F000F6A2002086F6A5F52056F6A5F42056F6A9
:10190000A20D2086F6A5F02056F6A2112086F6A597
:10191000F12056F6A2152086F6A5F22056F6A20969
:101920002086F6A207A02EBD86F724F3F003BC7E26
:10193000F798202BFFCA10EDA2042086F6BA8A2061
:1019400056F664F6207CF6A92E202BFFA200E4F6C2
:10195000F009BD8002202BFFE880F32025FF2048FE
:10196000FFC91BD002F0DBC908D012E000F00C4820
:10197000202BFF2072F668202BFFCA80E1C90DF0F2
:1019800022C97FD004A908D0E29007A907202BFF25
:1019900080CCC92090F5E07FB0F19D8002E8202B3B
:1019A000FF80BB2029FF86F6A20020C7F4B093C9B0
:1019B00041D000C944D03520D3F4B02D205DF420AF
:1019C00066F420D3F4B0052066F48002E6FA207CA9
:1019D000F6A5F82056F6A5F72056F62037F5206F25
:1019E000F42079F430E84CFAF24C55F4C947D010A1
:1019F000A5F548A5F448A5F348A5F0A6F1A4F24042
:101A0000C94DD05E20D3F4B056205DF42066F4209A
:101A1000D3F4B0052066F48002E6FA207CF6A5F83F
:101A20002056F6A5F72056F6A0002072F6B1F7C8AA
:101A30002056F6C010D0F32072F62077F6A000B141
:101A4000F7C8202BF5B002A92E202BFFC010D0EF35
:101A50002077F698206FF42079F430BF4CFAF24CDE
:101A600055F4C952D0034CA6F2C953D000C954D082
:101A700000C957D02020D3F4B018205DF420D7F44B
:101A8000B010A000A5FB91F7A901206FF4A9574C55
:101A900083F44C55F4C93FD004A21D8002A2192042
:101AA00086F64CFAF2A5FB85F7A5FC85F860A5FB48
:101AB00085F9A5FC85FA601865F785F79002E6F8C8
:101AC0006038A5F7E5F9A5F8E5FA60A20020ABF4C7
:101AD000A92020ABF4A5F8209FF4A5F7209FF4A936
:101AE0002020ABF44CFCF2484A4A4A4A20A8F46849
:101AF0002065F69D8002E886F660E4F6900160BD00
:101B00008002E8C9619006C97BB002295F18602095
:101B1000B2F4900160C920F0F61860A004D002A0D1
:101B20000284FD64FB64FC20C7F4200AF590016088
:101B300006FB26FC06FB26FC06FB26FC06FB26FC19
:101B400005FB85FBC6FDF00820B2F4200AF590E005
:101B50001860201BF5900AC9419002E907290F1867
:101B6000603860C93AB003C93060C947B003C941A1
:101B7000601860C9209006C97FB0023860186020E4
:101B800072F6A000B1F7AA2056F62072F6BD00F159
:101B900048482943F009A001B1F72056F6800320F8
:101BA0006FF62072F668A82941C941F0059829030B
:101BB000C903D009A002B1F72056F68003206FF6C2
:101BC000C898482072F6A000B1F7AABD00F0AABDDF
:101BD00001F285FBBD00F2203DF6203DF6203DF6EA
:101BE0002072F668482920F010A000B1F7290709F3
:101BF00030202BFFA92C202BFF68481005A9282096
:101C00002BFF68482903F02248C902D005A92320E8
:101C10002BFFA924202BFF68C903D007A002B1F72E
:101C20002056F6A001B1F72056F668482960C96031
:101C3000D005A92C202BFF6848A82940F012A92420
:101C4000202BFF98A0012920F001C8A9722048FF8D
:101C500068482910F005A941202BFF68482908F0A1
:101C60000AA92C202BFFA958202BFF68481005A992
:101C700029202BFF682904F00AA92C202BFFA95941
:101C8000202BFF686048291F0940202BFF6846FB76
:101C90006A46FB6A46FB6A46FB6A46FB6A60484A3C
:101CA0004A4A4A205FF6682065F64C2BFF290FF858
:101CB0001869906940D8602072F6A9204C2BFFA9C2
:101CC0007C4C2BFFA90D202BFFA90A4C2BFFBD92AA
:101CD000F6D00160202BFFE880F450433D002053F4
:101CE000503D0020503D0020413D0020583D002047
:101CF000593D000D0A3F000D0A4120787878782080
:101D00006F70636F6465205B617267735D09417317
:101D100073656D626C650D0A442078787878207957
:101D20007979790909446973617373656D626C65CA
:101D30000D0A47205B787878785D0909476F746FE2
:101D40000D0A4D20787878782079797979090944D5
:101D50006973706C6179204D656D6F72790D0A52EF
:101D6000090909446973706C617920526567697368
:101D7000746572730D0A532E2E2E090909533139D9
:101D8000204C6F61640D0A54205B787878785D0987
:101D90000954726163650D0A572078787878207944
:101DA0007909095772697465204D656D6F72790004
:101DB0000D0A0A426F6F74203635433032205B3192
:101DC000372E30395D00435A49443131564E0102B5
:101DD0000408102040800000000000000000000007
:101DE00000000000000000000000000000000000F3
:101DF00000000000000000000000000000000000E3
:101E000000000000000000000000000000000000D2
:101E100000000000000000000000000000000000C2
:102540000000000000000000D8A2FF9AE88E000200
:102550008E01028E02028E0302A91F8D03FEA9C9FD
:102560008D02FEAD00FE58A2D62086F600A911D03D
:1025700002A9134884FEAC030299420220AEFFCCAC
:102580000202F0FB8C0302A9058D02FEA4FE686026
:1025900084FEAC0002CC0102F0FBB9040220AEFFC5
:1025A0008C0002A4FE604C8EF248DA5ABABD0401D7
:1025B0002910D0F2AD01FE1039482910F01BAC02F1
:1025C00002CC0302F00EB942028D00FE20AEFF8C59
:1025D00002028005A9018D02FE682908F014AD00F1
:1025E000FEAC010299040220AEFFCC0002F0038C85
:1025F00001027AFA6840C8C03ED002A00060000024
:1026000000000000000000000000000000000000CA
:1026100000000000000000000000000000000000BA
:1026200000000000000000000000000000000000AA
:10263000000000000000000000000000000000009A
:1026400000005EFF00FF61FFB3F1D2F1810CC11108
:102650006132620C624CA2442251A225C2150232A0
:102660004206422E4232C20EC24E830D8311832592
:102670008359A341E34103620366A40CA460A464EC
:10268000E549C90DC961C965AA31AA416A326A4AD8
:102690008C048C608C646C4ACD3ACD42EE414F067E
:1026A000B004B024B048100510091011102D1041CD
:1026B00010611065900590099011904190619065AE
:1026C000B240F231F24992269232924E530CB30C40
:1026D000B310B324B3409306934293629366936A14
:1026E000346034647410744C940C540A740A740E7C
:1026F00074621407144F1467340734633724973413
:102700005804781478D838FBA2FF9A9C00029C01E8
:10271000029C02029C0302A91F8D03FFA9C98D021E
:10272000FFAD00FF5820ECF0A2032051F1EA80FD3C
:10273000A9208007A90D20F3F0A90A6C00F06C0213
:10274000F09C0001E23020ECF0A92E20F3F080FE96
:10275000A200EC0001B009BD800220F3F0E880F295
:1027600020F3F09D8002C90DF02FC908D002A97F87
:10277000C97FD014E000F00EA9084820F3F020E84B
:10278000F06820F3F0CA80D8C920B007A90720F369
:10279000F080CD20F3F0E880C7BD5DF1F00620F3B6
:1027A000F0E880F5600D0A00426F6F742036354303
:1027B000383032205B31382E30325D00AD01FF10F1
:1027C00039482910F01BAC0002CC0102F00EB9040C
:1027D000028D00FF20EAF18C00028005A9018D0224
:1027E000FF682908F014AD00FFAC030299420220F3
:1027F000EAF1CC0202F0038C030260485A08E2308E
:10280000AC010299040220EAF1CC0002F0FB8C0139
:1028100002A9058D02FF287A68605A08E230AC02EE
:1028200002CC0302F0FBB9420220EAF18C0202283A
:102830007A60C8C03E9002A0006000000000000066
:102840000000000000000000000000000000000088
:102850000000000000000000000000000000000078
:102860000000000000000000000000000000000068
:102870000000000000000000000000000000000058
:10334000000000000000000016522852A052045253
:103350006252045EA0520452125252529E520452C1
:103360001E52369A9E520452420240020C027602CB
:103370006E02766C0C0276020E0202020C027602DB
:1033800082022EA20C0276027A34B2344E344A34CF
:103390005A344A603E344A341A3434344C344A3451
:1033A000223466983E344A347E00580092007800F9
:1033B0006800787C3E0078001C00000092007800D5
:1033C0008600729C3E007800148A188A908A8E8A41
:1033D000320CA65C908A8E8A068A8A8A908A8E8AA5
:1033E000AC8AA8AA928A928A4844464448444644F1
:1033F0009644946A484446440844444844484644F1
:103400002444A4AE484446442C2674262C262E265A
:103410003A2630B02C262E261026262656262E2674
:103420002026648C3C262E262A8088802A8036809E
:10343000388050B42A8036800A808080548036805C
:10344000848070B6428036802E1E2E121010101A04
:10345000242C0224000000082620181C101414221A
:10346000240602240004040A001E08121010101A78
:10347000242C0224000000082620181C14141422F6
:10348000240602240404040A241E2E122A10101AF0
:10349000242C0224000000082620181C2A141422C0
:1034A000240624240804040A241E24121010101ACE
:1034B000242C02240C0000082620181C14141422AA
:1034C000240624240E04040A261E28121010101AA2
:1034D000242C2424000000082620181C1414162272
:1034E000240624240004040A301E30121010101A7E
:1034F000242C2424000000082620181C1414162252
:10350000240624240404060A301E2E121010101A59
:10351000242C2424000000082620181C2414142223
:10352000240624240C04040A301E2E121010101A33
:10353000242C2424000000082620181C2414142203
:10354000240624240E04040A0000000000000000E9
:10355000000000000000000000000000000000006B
:10356000000000000000000000000000000000005B
:10357000000000000000000000000000000000004B
:10358000000000000000000018FB66F0C23085F269
:1035900086F484F67B85F8E22024F030006885F11B
:1035A000BA86FA584CF9F048A3028910F004684C26
:1035B00040FF5A2074F17A684048DA5A08E2302015
:1035C00074F1287AFA684000000000000000000052
:1035D00000000000000000000000000000000000EB
:1035E00000000000000000000000000000000000DB
:1035F00000000000000000000000000000000000CB
:1036000000000000000000000000000000000000BA
:1036100000000000000000000000000000000000AA
:10362000000000000000000000000000F0FF40FF6C
:10363000F0FFF0FF000071FF40400000F1FF0000CC
:08364000F1FFF1FFBCF05FFF98
:020000040030CA
:0100010038C6
:0100020018E5
:0100030028D4
:01000500BD3D
:010006008178
:010008000FE8
:01000900C036
:01000A000FE6
:01000B00E014
:01000C000FE4
:01000D0040B2
:00000001FF
