:020000040000FA
:0400000003EF00F01A
:020004000000FA
:0A0006000F01386B396B3A6B3B6B4E
:100010003C6B8B6A8D6A96908D9094828B929692AF
:100020008D8294908B80700ED36E9B8CD3A4FED760
:10003000949C440EAF6E000EB06E080EB86E200E8B
:10004000AC6E900EAB6EAE50AE50E86A4CD94BD948
:100050004ED94DD9006A400E8D920000000000007C
:100060000000000000008D82000000000000000081
:10007000E82EF2D7968000000000000000008CD827
:100080008D8200008050FC0AFAE181503F0AF7E1BE
:1000900084A4F5D7956A000E8C6E000000007CD811
:1000A0008D8200008050FD0AEAE181503F0AE7E1BD
:1000B00084A4E5D7956A100E8C6E000000006CD801
:1000C0006C0E70D869D8FF0E6DD866D8000E6AD84D
:1000D00063D8801CD8B404D00006000E63D85CD866
:1000E000000E60D859D8100E5DD800BE10D003D9CC
:1000F00053422D36353032205B31362E30355D0D92
:100100000A00000EF66EE00EF76EF86A10D0F3D813
:1001100053422D3635433032205B31362E30355D3B
:100120000D0A0000000EF66EF00EF76EF86A016A16
:10013000F00E026E090030D8A90E34D82DD8F55033
:1001400031D82AD88D0E2ED827D801502BD824D8B4
:10015000025028D821D833D8012AECE11DD84C0E02
:1001600021D81AD8000E1ED817D8100E1BD8022A74
:10017000E1E112D86C0E16D80FD8FC0E13D80CD8AB
:10018000FF0E10D800AE03D007D8FF0E0BD804D84E
:1001900010D802D80ED819D08D9295688B800000A7
:1001A000000012008D8284B4956A8C6E00000000FD
:1001B00012008D8284B48B900000000012008D82AA
:1001C00084A48B90000000001200046A8D92956850
:1001D0008B809E500414D8A49492D8B494828D82BB
:1001E000000081503E0A1BE1010EFA6E8050070BA1
:1001F00084A40809E846FE0FD8B0FA2AF96E11D097
:100200001BD028D03AD044D04ED055D05FD00FD09C
:100210001DD026D038D042D04AD053D05DD08B905C
:10022000D5D7AE50956A8C6E00000000CFD78350B2
:10023000AD6E00000000CAD7E86A9EBA88099EB871
:100240009009956A8C6E00000000C0D70000000085
:100250000000BCD70552956A8C6E00000000B6D72E
:100260008350056E049A049805A0B0D705A2048AAD
:100270000C0B040AD8B40488A9D70652956A8C6E70
:1002800000000000A3D78350066E000000009ED738
:10029000C950956A8C6E0000000098D78350C96ED3
:1002A0000000000093D70000000000008FD700007E
:1002B000000000008BD70750956A8C6E000000008C
:1002C00085D78350076E0000000080D70852956ADA
:1002D0008C6E000000007AD78350086E8B18040BD8
:1002E0008B1A000073D79EA8FED7AD6E12000D0EBC
:1002F000FADF0A0EF8D7FD50F66EFE50F76EFF508B
:10030000F86E0900F55002E0EEDFFBD7F6B0090009
:0E031000F650FD6EF750FE6EF850FF6E1200B4
:10E000001C4C0000004C0600504C0600004C060062
:10E01000184C0000004C0600224C3800004C060052
:10E020004004000012046000580460001204600004
:10E0300016040000120460006A043000120460003C
:10E0400064360000003648004E3648003E36480030
:10E050001E36000000364800263600000036480014
:10E060006602000000026200560262003E02620088
:10E0700020020000000262006E0200000002620046
:10E080000072000078727600341286007872760092
:10E090000C720000787276008A72880000720000AC
:10E0A00046424400464244007E427C0046424400D0
:10E0B0000E4200004642440028428400464244008A
:10E0C0002E2A00002E2A30003C2A32002E2A300050
:10E0D000142A0000002A3000242A0000002A300000
:10E0E0002C6800002C6838003A684A002C68380018
:10E0F00010680000006838006C6800000068380094
:10E100000289020000010100000210000003030068
:10E11000408500000005050000071000000B0B0003
:10E120000389000001010100000210000303030045
:10E130004085000005050500000710000B0B0B00D3
:10E140000089000000010100000210000303030029
:10E15000408500000005050000070000000B0B00D3
:10E160000089000000010100000210008303030089
:10E17000408500000005050000070000000B0B00B3
:10E1800000890000010101000002000003030300F8
:10E19000408500000505050000070000000B000099
:10E1A00002890200010101000002000003030300D4
:10E1B0004085000005050500000700000B0B070067
:10E1C00002890000010101000002000003030300B6
:10E1D000408500000005050000070000000B0B0053
:10E1E0000289000001010100000200000303030096
:10E1F000408500000005050000070000000B0B0033
:10E200008304C4056C065208530863087308B108F8
:10E210003409C509A9090C0A410A4B0AC30AD30AE1
:10E22000830D840D890D960DB00D180E190EA310D7
:10E23000B810B910F215C325D825D925B029722AEE
:10E240008130983099307232F039413E01411041AD
:10E25000184119418141904198419941A249EC49A5
:10E26000F249894A934A434CA34CA44CA94CA24D71
:10E27000814E904E984E994E9A4E38503950425297
:10E2800062527852015313532153295C586885F226
:10E290006885F16885F06885F33868E90285F46877
:10E2A000E90085F52058F3A2002062F3A5F5203E91
:10E2B000F3A5F4203EF3A2082062F3A5F0203EF37C
:10E2C000A20C2062F3A5F1203EF3A2102062F3A578
:10E2D000F2203EF3A90085F62058F3A92E2016FF60
:10E2E000A200E4F6F00ABD80022016FFE84CE2F23C
:10E2F000202AFFC908D013E000F00F482016FF20A5
:10E3000053F3682016FFCA4CF0F2C90DF020C97F04
:10E31000D004A908D0E19008A9072016FF4CF0F21C
:10E32000C92090F49D8002E82016FF4CF0F286F69A
:10E33000C547D000C553D0034CA4F24CD4F2484A90
:10E340004A4A4A2047F368290FF81869906940D86B
:10E350004C16FFA9204C16FFA90D2016FFA90A4C48
:10E3600016FFBD6FF3D001602016FFE84C62F3503A
:10E37000433D0020503D0020413D0020583D0020FD
:10E38000593D0000000000000000000000000000F7
:10E39000000000000000000000000000000000007D
:10E3A000000000000000000000000000000000006D
:10E3B000000000000000000000000000000000005D
:10E3C000000000000000000000000000000000004D
:10EF0000D8A2FF9AE886FB86FC86FD86FE86FFA9CE
:10EF1000018D02FE5800A4FE99400220CEFFC4FDE0
:10EF2000F0FC84FEA9058D02FE6024FF1010204D28
:10EF3000FFC906B009A95E2016FFA90085FFA4FB42
:10EF4000C4FCF0FCB9000220CEFF84FB6038A5FCB5
:10EF5000E5FB1002694060488A489848D8BABD0469
:10EF6000012910F0034C8CF2AD01FE105B4829081A
:10EF7000F02BAD00FEA4FC99000220CEFFC4FBF0F4
:10EF80000284FCA9C024FF3014D012204DFFC939DF
:10EF9000900BA94005FF85FFA9058D02FE68291089
:10EFA000F02624FF5009A9218D00FE06FFD019A4E8
:10EFB000FDC4FEF00EB940028D00FE20CEFF84FDA0
:10EFC0004CC8FFA9018D02FE68A868AA6840C8C0A5
:10EFD00040D002A0006040000000000000000000DF
:10EFE0000000000000000000000000000000000021
:10EFF00000000000000000000000D6FF00FF57FFE7
:10F000001C4C0000824C065E504C0600824C0609E7
:10F01000184C4C00804C065E224C3800804C06098F
:10F02000400400001204605E58046000120460098D
:10F03000160404001204605E6A04300012046009C1
:10F04000643600000036485E4E3648003E364809B9
:10F050001E3636000036485E263654000036480913
:10F06000660200007A02625E560262003E02620997
:10F07000200202007A02625E6E025C003E026209B9
:10F080001A72000078727670341286007872760AEE
:10F090000C727200787276708A7288007A727A0ABC
:10F0A00046424400464244707E427C004642440A46
:10F0B0000E42420046424470284284004642440ABE
:10F0C0002E2A00002E2A30703C2A328C2E2A300A3A
:10F0D000142A2A00002A3070242A5274002A300A86
:10F0E0002C6800002C6838703A684A002C68380A8E
:10F0F00010686800006838706C685A000068380A48
:10F1000002890200010101010002100003030361F2
:10F11000408581000105050100071000030B0B610C
:10F1200003890000010101010002100003030361D3
:10F130004085810005050501000710000B0B0B61E0
:10F1400000890000000101010002100003030361B7
:10F15000408581000005050100070000000B0B61E0
:10F160000089000001010101000210008303036116
:10F170004085810005050501000700008B0B0B6130
:10F180004089000001010101000200000303036146
:10F19000408581000505050100070000030B0B6198
:10F1A0000289020001010101000200000303036162
:10F1B0004085810005050501000700000B0B076174
:10F1C0000289000001010101000200000303036144
:10F1D000408581000005050100070000000B0B6160
:10F1E0000289000001010101000200000303036124
:10F1F000408581000005050100070000000B0B6140
:10F200008304C4056C065208530863087308B108E8
:10F210003409C509A9090C0A410A4B0AC30AD30AD1
:10F22000830D840D890D960DB00D180E190EA310C7
:10F23000B810B910F215C325D825D925B029722ADE
:10F240008130983099307232F039413E014110419D
:10F25000184119418141904198419941A249EC4995
:10F26000F249894A934A434CA34CA44CA94CA24D61
:10F27000814E904E984E994E9A4E38503950425287
:10F2800062527852015313532153295C586885F216
:10F290006885F16885F06885F33868E90285F46867
:10F2A000E90085F52052F3A200205CF3A5F5203893
:10F2B000F3A5F42038F3A208205CF3A5F02038F37E
:10F2C000A20C205CF3A5F12038F3A210205CF3A57A
:10F2D000F22038F364F62052F3A92E2016FFA20084
:10F2E000E4F6F009BD80022016FFE880F3202AFF33
:10F2F000C908D012E000F00E482016FF204DF36838
:10F300002016FFCA80E7C90DF01EC97FD004A908E6
:10F31000D0E29007A9072016FF80D2C92090F59D62
:10F320008002E82016FF80C586F6C547D000C55389
:10F33000D0034CA4F24CD4F2484A4A4A4A2041F342
:10F3400068290FF81869906940D84C16FFA9204C1D
:10F3500016FFA90D2016FFA90A4C16FFBD68F3D0B1
:10F3600001602016FFE880F450433D0020503D002E
:10F3700020413D0020583D0020593D000000000084
:10F38000000000000000000000000000000000007D
:10F39000000000000000000000000000000000006D
:10F3A000000000000000000000000000000000005D
:10F3B000000000000000000000000000000000004D
:10FF0000D8A2FF9AE886FB86FC86FD86FE86FFA9BE
:10FF1000018D02FE5800A4FE99400220C4FFC4FDDA
:10FF2000F0FC84FEA9058D02FE6024FF100E204B1C
:10FF3000FFC906B007A95E2016FF64FFA4FBC4FC3E
:10FF4000F0FCB9000220C4FF84FB6038A5FCE5FB8F
:10FF5000100269406048DA5ABABD04012910F00362
:10FF60004C8CF2AD01FE1058482908F029AD00FE76
:10FF7000A4FC99000220C4FFC4FBF00284FCA9C0C9
:10FF800024FF3012D010204BFFC9399009A940043A
:10FF9000FFA9058D02FE682910F02524FF5009A94C
:10FFA000218D00FE06FFD018A4FDC4FEF00DB9405F
:10FFB000028D00FE20C4FF84FD8005A9018D02FE94
:10FFC0007AFA6840C8C040D002A00060400000003B
:10FFD0000000000000000000000000000000000021
:10FFE0000000000000000000000000000000000011
:10FFF00000000000000000000000CCFF00FF55FFE3
:020000040030CA
:0100010038C6
:0100020018E5
:0100030028D4
:01000500BD3D
:010006008178
:010008000FE8
:01000900C036
:01000A000FE6
:01000B00E014
:01000C000FE4
:01000D0040B2
:00000001FF
