:020000040000FA
:0400000003EF10F00A
:020004000000FA
:0A0006001C4C0000004C0600504C9A
:100010000600004C0600184C0000004C0600224C64
:100020003800004C06004004000012046000580430
:1000300060001204600016040000120460006A04EC
:1000400030001204600064360000003648004E366E
:1000500048003E3648001E3600000036480026366E
:1000600000000036480066020000000262005602EE
:1000700062003E02620020020000000262006E0286
:1000800000000002620000720000787276003412F4
:100090008600787276000C720000787276008A72A0
:1000A00088000072000046424400464244007E42FE
:1000B0007C00464244000E42000046424400284272
:1000C0008400464244002E2A00002E2A30003C2A9A
:1000D00032002E2A3000142A0000002A3000242A80
:1000E0000000002A30002C6800002C6838003A68B4
:1000F0004A002C68380010680000006838006C68FE
:1001000000000068380002890200000101000002BE
:1001100010000003030040850000000505000007F3
:100120001000000B0B000389000001010100000218
:1001300010000303030040850000050505000007CB
:1001400010000B0B0B0000890000000101000002F1
:1001500010000303030040850000000505000007B0
:100160000000000B0B0000890000000101000002EC
:100170001000830303004085000000050500000710
:100180000000000B0B0000890000010101000002CB
:10019000000003030300408500000505050000077B
:1001A0000000000B000002890200010101000002B2
:1001B000000003030300408500000505050000075B
:1001C00000000B0B07000289000001010100000282
:1001D0000000030303004085000000050500000740
:1001E0000000000B0B000289000001010100000269
:1001F0000000030303004085000000050500000720
:100200000000000B0B008304C4056C065208530861
:1002100063087308B1083409C509A9090C0A410A21
:100220004B0AC30AD30A830D840D890D960DB00DB8
:10023000180E190EA310B810B910F215C325D82541
:10024000D925B029722A8130983099307232F0392C
:10025000413E01411041184119418141904198416D
:100260009941A249EC49F249894A934A434CA34C2B
:10027000A44CA94CA24D814E904E984E994E9A4E48
:10028000385039504252625278520153135321531D
:10029000295C586885F26885F16885F06885F338CF
:1002A00068E90285F468E90085F52078F3A200206A
:1002B00082F3A5F5205EF3A5F4205EF3A208208268
:1002C000F3A5F0205EF3A20C2082F3A5F1205EF3EB
:1002D000A2102082F3A5F2205EF3A90085F6207813
:1002E000F3A92E2014FFA200E4F6F00ABD8002203C
:1002F00014FFE84CE2F22028FFC908D013E000F018
:100300000C482014FF2073F3682014FFCA4CF0F24D
:10031000C90DF024C97FD004A908D0E19008A9072D
:100320002014FF4CF0F2C92090F4E07FB0F09D80E3
:1003300002E82014FF4CF0F286F6A2002049F3B048
:1003400099C947D000C952D0034CA4F24CD4F2E46E
:10035000F6900160BD8002E8C9619006C97BB002D9
:10036000295F1860484A4A4A4A2067F368290FF80B
:100370001869906940D84C14FFA9204C14FFA90DAE
:100380002014FFA90A4C14FFBD8FF3D00160201484
:10039000FFE84C82F350433D0020503D0020413D9A
:1003A0000020583D0020593D0000000000000000E2
:1003B000000000000000000000000000000000003D
:1003C000000000000000000000000000000000002D
:1003D000000000000000000000000000000000001D
:1003E000000000000000000000000000000000000D
:100F0000000000000000D8A2FF9AE886FB86FC865D
:100F1000FD86FEA9018D02FE5800A4FE9940022024
:100F200087FFC4FDF0FC84FEA9058D02FE60A4FBD2
:100F3000C4FCF0FCB900022087FF84FB604C8CF2FB
:100F4000488A489848D8BABD04012910D0EFAD01AD
:100F5000FE1034482910F019A4FDC4FEF00EB9406B
:100F6000028D00FE2087FF84FD4C6BFFA9018D02DE
:100F7000FE682908F011AD00FEA4FC99000220874C
:100F8000FFC4FBF00284FC68A868AA6840C8C0409F
:100F9000D002A0006000000000000000000000007F
:100FA0000000000000000000000000000000000041
:100FB0000000000000000000000000000000000031
:100FC0000000000000000000000000000000000021
:100FD0000000000000000000000000000000000011
:100FE0000000000000000000000000000000000001
:100FF00000000000000000000000000000000000F1
:1010000037FF00FF3AFF1C4C0000824C065E504C3C
:101010000600824C0609184C4C00804C065E224C9F
:101020003800804C0609400400001204605E580439
:10103000600012046009160404001204605E6A0471
:10104000300012046009643600000036485E4E36F7
:1010500048003E3648091E3636000036485E2636C1
:10106000540000364809660200007A02625E5602A9
:1010700062003E026209200202007A02625E6E0293
:101080005C003E0262091A720000787276703412B7
:1010900086007872760A0C727200787276708A72A4
:1010A00088007A727A0A46424400464244707E4280
:1010B0007C004642440A0E424200464244702842A6
:1010C00084004642440A2E2A00002E2A30703C2A10
:1010D000328C2E2A300A142A2A00002A3070242A40
:1010E0005274002A300A2C6800002C6838703A6864
:1010F0004A002C68380A10686800006838706C680C
:101100005A000068380A0289020001010101000248
:1011100010000303036140858100010505010007FC
:101120001000030B0B6103890000010101010002A3
:1011300010000303036140858100050505010007D8
:1011400010000B0B0B61008900000001010100027F
:1011500010000303036140858100000505010007BD
:101160000000000B0B610089000001010101000279
:101170001000830303614085810005050501000718
:1011800000008B0B0B61408900000101010100028E
:101190000000030303614085810005050501000788
:1011A0000000030B0B610289020001010101000232
:1011B0000000030303614085810005050501000768
:1011C00000000B0B07610289000001010101000210
:1011D000000003030361408581000005050100074D
:1011E0000000000B0B6102890000010101010002F7
:1011F000000003030361408581000005050100072D
:101200000000000B0B618304C4056C0652085308F0
:1012100063087308B1083409C509A9090C0A410A11
:101220004B0AC30AD30A830D840D890D960DB00DA8
:10123000180E190EA310B810B910F215C325D82531
:10124000D925B029722A8130983099307232F0391C
:10125000413E01411041184119418141904198415D
:101260009941A249EC49F249894A934A434CA34C1B
:10127000A44CA94CA24D814E904E984E994E9A4E38
:10128000385039504252625278520153135321530D
:10129000295C586885F26885F16885F06885F338BF
:1012A00068E90285F468E90085F52072F3A2002060
:1012B0007CF3A5F52058F3A5F42058F3A208207C70
:1012C000F3A5F02058F3A20C207CF3A5F12058F3ED
:1012D000A210207CF3A5F22058F364F62072F3A943
:1012E0002E2014FFA200E4F6F009BD80022014FFB6
:1012F000E880F32028FFC908D012E000F00C482055
:1013000014FF206DF3682014FFCA80E7C90DF02296
:10131000C97FD004A908D0E29007A9072014FF8054
:10132000D2C92090F5E07FB0F19D8002E82014FF43
:1013300080C186F6A2002043F3B09FC947D000C900
:1013400052D0034CA4F24CD4F2E4F6900160BD807C
:1013500002E8C9619006C97BB002295F1860484A5B
:101360004A4A4A2061F368290FF81869906940D801
:101370004C14FFA9204C14FFA90D2014FFA90A4CFE
:1013800014FFBD88F3D001602014FFE880F45043BF
:101390003D0020503D0020413D0020583D00205997
:1013A0003D00000000000000000000000000000000
:1013B000000000000000000000000000000000002D
:1013C000000000000000000000000000000000001D
:1013D000000000000000000000000000000000000D
:1013E00000000000000000000000000000000000FD
:101F0000000000000000D8A2FF9AE886FB86FC864D
:101F1000FD86FEA9018D02FE5800A4FE9940022014
:101F200081FFC4FDF0FC84FEA9058D02FE60A4FBC8
:101F3000C4FCF0FCB900022081FF84FB604C8CF2F1
:101F400048DA5ABABD04012910D0F2AD01FE1033AF
:101F5000482910F018A4FDC4FEF00DB940028D0010
:101F6000FE2081FF84FD8005A9018D02FE682908FD
:101F7000F011AD00FEA4FC9900022081FFC4FBF02B
:101F80000284FC7AFA6840C8C040D002A000600019
:101F90000000000000000000000000000000000041
:101FA0000000000000000000000000000000000031
:101FB0000000000000000000000000000000000021
:101FC0000000000000000000000000000000000011
:101FD0000000000000000000000000000000000001
:101FE00000000000000000000000000000000000F1
:101FF00000000000000000000000000000000000E1
:0620000037FF00FF3AFF6C
:0A2006000F01386B396B3A6B3B6B2E
:102010003C6B8B6A8D6A96908D9094828B9296928F
:102020008D8294908B80700ED36E9B8CD3A4FED740
:10203000949C9F0EAF6E010EB06E080EB86E200E0F
:10204000AC6E900EAB6EAE50AE50E86A4CD94BD928
:102050004ED94DD9006A400E8D920000000000005C
:102060000000000000008D82000000000000000061
:10207000E82EF2D7968000000000000000008CD807
:102080008D8200008050FC0AFAE181503F0AF7E19E
:1020900084A4F5D7956A000E8C6E000000007CD8F1
:1020A0008D8200008050FD0AEAE181503F0AE7E19D
:1020B00084A4E5D7956A100E8C6E000000006CD8E1
:1020C0006C0E70D869D8FF0E6DD866D8000E6AD82D
:1020D00063D8801CD8B404D00006000E63D85CD846
:1020E000000E60D859D8100E5DD800BE10D003D9AC
:1020F00053422D36353032205B31362E30355D0D72
:102100000A00060EF66E000EF76EF86A10D0F3D8CD
:1021100053422D3635433032205B31362E30355D1B
:102120000D0A0000060EF66E100EF76EF86A016AD0
:10213000F00E026E090030D8A90E34D82DD8F55013
:1021400031D82AD88D0E2ED827D801502BD824D894
:10215000025028D821D833D8012AECE11DD84C0EE2
:1021600021D81AD8000E1ED817D8100E1BD8022A54
:10217000E1E112D86C0E16D80FD8FC0E13D80CD88B
:10218000FF0E10D800AE03D007D8FF0E0BD804D82E
:1021900010D802D80ED819D08D9295688B80000087
:1021A000000012008D8284B4956A8C6E00000000DD
:1021B00012008D8284B48B900000000012008D828A
:1021C00084A48B90000000001200046A8D92956830
:1021D0008B809E500414D8A49492D8B494828D829B
:1021E000000081503E0A1BE1210EFA6E8050070B61
:1021F00084A40809E846FE0FD8B0FA2AF96E11D077
:102200001BD028D03AD044D04ED055D05FD00FD07C
:102210001DD026D038D042D04AD053D05DD08B903C
:10222000D5D7AE50956A8C6E00000000CFD7835092
:10223000AD6E00000000CAD7E86A9EBA88099EB851
:102240009009956A8C6E00000000C0D70000000065
:102250000000BCD70552956A8C6E00000000B6D70E
:102260008350056E049A049805A0B0D705A2048A8D
:102270000C0B040AD8B40488A9D70652956A8C6E50
:1022800000000000A3D78350066E000000009ED718
:10229000C950956A8C6E0000000098D78350C96EB3
:1022A0000000000093D70000000000008FD700005E
:1022B000000000008BD70750956A8C6E000000006C
:1022C00085D78350076E0000000080D70852956ABA
:1022D0008C6E000000007AD78350086E8B18040BB8
:1022E0008B1A000073D79EA8FED7AD6E12000D0E9C
:1022F000FADF0A0EF8D7FD50F66EFE50F76EFF506B
:10230000F86E0900F55002E0EEDFFBD7F6B00900E9
:0E231000F650FD6EF750FE6EF850FF6E120094
:020000040030CA
:0100010038C6
:0100020018E5
:0100030028D4
:01000500BD3D
:010006008178
:010008000FE8
:01000900C036
:01000A000FE6
:01000B00E014
:01000C000FE4
:01000D0040B2
:00000001FF
