:020000040000FA
:0400000024EF00F0F9
:020004000000FA
:080008009E92100E0B240B6EFA
:100010001BBE116E000E0C220C6E1BBE126E000E6B
:1000200013220D6E1BBE136E000E14220E6E1BBE2D
:10003000146E000E15220F6E1BBE156E000E1622DA
:10004000106E1BBE166E11000F01386B396B3A6BC8
:100050003B6B3C6B8B6A8D6A96908D9094828B92F1
:1000600096928D8294908B80700ED36E9B8CD3A4CD
:10007000FED7949C948E080EB86E200EAC6E900E37
:10008000AB6EAE50AE509496949A948894942A0E87
:10009000C66EC950C950790EBB6E3F0EBC6ABA6EAF
:1000A0009E92E86A006AF28E400E8D920000000077
:1000B00000000000000000008D8200000000000031
:1000C0000000E82EF2D7968000000000000000003B
:1000D00077D88D8200008050FC0AFAE181503F0AF7
:1000E000F7E184A4F5D7956A000E8C6E000000003D
:1000F00067D88D8200008050FD0AEAE181503F0AF6
:10010000E7E184A4E5D7956A100E8C6E000000002C
:1001100057D86C0E5BD854D8FF0E58D851D8000E63
:1001200055D84ED8801CD8B404D00006000E4ED846
:1001300047D8000E4BD844D8100E48D800BE06D081
:100140003A0EF66E060EF76EF86A05D03A0EF66EA7
:10015000160EF76EF86A016AF00E026E090030D8CA
:10016000A90E34D82DD8F55031D82AD88D0E2ED8D6
:1001700027D801502BD824D8025028D821D833D8DA
:10018000012AECE11DD84C0E21D81AD8000E1ED839
:1001900017D8100E1BD8022AE1E112D86C0E16D81F
:1001A0000FD8FC0E13D80CD8FF0E10D800AE03D019
:1001B00007D8FF0E0BD804D810D802D80ED819D003
:1001C0008D9295688B800000000012008D8284B4AF
:1001D000956A8C6E0000000012008D8284B48B90B2
:1001E0000000000012008D8284A48B9000000000AB
:1001F0001200046A056A066A076A086A096A0A6AD6
:100200000B6A0C6A0D6A0E6A0F6A106A116A126A2A
:10021000136A146A156A166A176A186A196A1A6ADA
:100220001B6A1C6A1D6AF28E8D9295688B809E50A7
:10023000380B04100514D8A49492D8B494828D82FB
:10024000000081503E0A02E08B90EED780503F0BB9
:1002500084A44009020DE8D985D08FD0A3D0B5D0B1
:1002600081D08BD09FD0B1D07DD087D09BD0ADD066
:1002700079D083D097D0A9D003D10DD126D131D157
:10028000FFD009D122D12DD1FBD005D11ED129D14A
:10029000F7D001D11AD125D131D13DD148D153D197
:1002A0005ED169D174D17ED188D192D19CD1A7D1B0
:1002B000B1D152D051D050D04FD04ED04DD04CD0E3
:1002C0004BD04AD049D048D047D046D045D044D072
:1002D00043D042D041D040D04BD05DD069D07BD00C
:1002E00047D059D065D077D043D055D061D073D0A6
:1002F0003FD051D05DD06FD0C9D0D8D0ECD0F7D09E
:10030000C5D0D4D0E8D0F3D0C1D0D0D0E4D0EFD095
:10031000BDD0CCD0E0D0EBD0F7D003D10ED119D1E5
:1003200024D12FD13AD144D14ED158D162D16DD1FF
:1003300077D112D011D010D012D011D010D00FD050
:100340000ED00DD00CD00BD00AD009D008D007D0D9
:1003500006D005D004D003D0FF0E956A8C6E000045
:10036000000062D7AE50956A8C6E000000005CD72A
:100370008350AD6E0000000057D7E86A9EBA880926
:100380009EB89009ABB20409ABB40209956A8C6EB1
:100390000000000049D7066A076A059A0598000020
:1003A000000042D70652956A8C6E000000003CD7D0
:1003B0008350066E059A059806A036D706A2058AD0
:1003C0000C0B040AD8B405882FD70752956A8C6E97
:1003D0000000000029D78350076E0F0B0A0D24D9A7
:1003E000210EAF6E000EB06E1FD77F0EAF6E380EAF
:1003F000B06E1AD7540EAF6ED00EB06E15D70A0E6F
:10040000AF6E8E0EB06E10D7990EAF6E740EB06ECA
:100410000BD7290EAF6E680EB06E06D7140EAF6EF6
:10042000340EB06E01D7090EAF6E1A0EB06EFCD648
:10043000040EAF6E0D0EB06EF7D6AD0EAF6E080E99
:10044000B06EF2D6810EAF6E060EB06EEDD6560EC1
:10045000AF6E040EB06EE8D6400EAF6E030EB06EF7
:10046000E3D62A0EAF6E020EB06EDED69F0EAF6ED2
:10047000010EB06ED9D6CF0EAF6E000EB06ED4D6D0
:10048000C950956A8C6E00000000CED68350C96EAC
:1004900000000000C9D60850C7B08009C7B42009C1
:1004A000956A8C6E000000000000BED683505F0B82
:1004B000086EC69AC79CE8B2C78CC79EE8B0C78EC4
:1004C000C68A000000000000AFD60950956A8C6E05
:1004D00000000000A9D683503F0B096EC86E0000D3
:1004E000A3D60A52956A8C6E000000009DD68350F8
:1004F0000A6E8B18040B8B1A000096D61150956A61
:100500008C6E0000000090D68350F10B0B6E116EC4
:100510000000000089D61250956A8C6E0000000021
:1005200083D683500C6E126E000000007DD61350EF
:10053000956A8C6E0000000077D683500D6E136EA6
:100540000000000071D61450956A8C6E0000000007
:100550006BD683500E6E146E0000000065D61550E9
:10056000956A8C6E000000005FD683500F6E156E8A
:100570000000000059D61650956A8C6E00000000ED
:1005800053D68350106E166E000000004DD61750E3
:10059000956A8C6E0000000047D68350176E0000ED
:1005A000000042D61850956A8C6E000000003CD6C0
:1005B0008350186E0000000037D61950956A8C6E73
:1005C0000000000031D68350196E000000002CD6C8
:1005D0001A50956A8C6E0000000026D683501A6E61
:1005E0000000000021D61B50956A8C6E00000000B0
:1005F0001BD68350CF0B1B6E0000000015D61C507D
:10060000956A8C6E000000000FD683501C6E0000AF
:1006100000000AD61D50956A8C6E0000000004D6BA
:100620001D6A0000000000D6F350FD26F450FE22A3
:0A06300012009EA8FED7AD6E120066
:06063A001C4C0000004C06
:100640000600504C0600004C0600184C0000004C00
:100650000600224C3800004C060040040000120442
:1006600060005804600012046000160400001204C8
:1006700060006A0430001204600064360000003636
:1006800048004E3648003E3648001E360000003610
:1006900048002636000000364800660200000002CE
:1006A0006200560262003E02620020020000000268
:1006B00062006E02000000026200007200007872A8
:1006C000760034128600787276000C720000787220
:1006D00076008A728800007200004642440046425A
:1006E00044007E427C00464244000E4200004642E6
:1006F000440028428400464244002E2A00002E2A4C
:1007000030003C2A32002E2A3000142A0000002A31
:100710003000242A0000002A30002C6800002C68D9
:1007200038003A684A002C683800106800000068F9
:1007300038006C680000006838000289020000017F
:1007400001000002100000030300408500000005C6
:10075000050000071000000B0B00038900000101D9
:10076000010000021000030303004085000005059E
:100770000500000710000B0B0B00008900000001B2
:100780000100000210000303030040850000000583
:10079000050000070000000B0B00008900000001AD
:1007A00001000002100083030300408500000005E3
:1007B000050000070000000B0B000089000001018C
:1007C000010000020000030303004085000005054E
:1007D000050000070000000B000002890200010173
:1007E000010000020000030303004085000005052E
:1007F0000500000700000B0B070002890000010143
:100800000100000200000303030040850000000512
:10081000050000070000000B0B0002890000010129
:1008200001000002000003030300408500000005F2
:10083000050000070000000B0B00FF7F810CC111B9
:1008400061324248424C620C624CA2442251C215B1
:10085000A22502324206422EC20EC24E830D8311E1
:1008600083258359A34103620366A40CA460A46496
:10087000E549C90DC961C965AA416A4A8C048C6001
:100880008C646C4AEE414F061005104110611065F2
:100890009005904190619065B209F231F24992263B
:1008A000924E530CB30CB310B324B3099306934286
:1008B00093629366936A34603464540A740A74626F
:1008C0001407144F34073724586885F26885F16897
:1008D00085F06885F33868E90285F468E90085F5F4
:1008E00020CAF6A20020D4F6A5F520A4F6A5F4208F
:1008F000A4F6A20D20D4F6A5F020A4F6A21120D4CF
:10090000F6A5F120A4F6A21520D4F6A5F220A4F6AF
:10091000A20920D4F6A207A02EBDC0F724F3F0044C
:1009200000BCB8F7982027FFCA10ECFFA20420D41F
:10093000F6BA8A20A4F6A90085F620CAF6A92E20C8
:1009400027FFA200E4F6F00B00BD80022027FFE89D
:100950004C0AF32020FF2045FFC91BD00400F0D62D
:10096000FFC908D01500E000F00D00482027FF2047
:10097000C0F6682027FFCA4C1CF3C90DF02A00C935
:100980007FD00600A908D0DEFF900900A907202724
:10099000FF4C1CF3C92090F4FFE07FB0EFFF9D8077
:1009A00002E82027FF4C1CF32025FF86F6A200203A
:1009B000F6F4B082FFC941D00100C944D03A00200A
:1009C00004F5B031002088F42091F42004F5B0073C
:1009D000002091F44C9FF3E6FA20CAF6A5F820A473
:1009E000F6A5F720A4F62074F5209AF420A5F4309B
:1009F000E8FF4CFCF24C80F4C947D01100A5F54843
:100A0000A5F448A5F348A5F0A6F1A4F240C94DD03D
:100A100066002004F5B05D002088F42091F42004E5
:100A2000F5B007002091F44CF2F3E6FA20CAF6A5DF
:100A3000F820A4F6A5F720A4F6A00020C0F6B1F790
:100A4000C820A4F6C010D0F3FF20C0F620C5F6A041
:100A500000B1F7C82066F5B00300A92E2027FFC01B
:100A600010D0EEFF20C5F698209AF420A5F430BCF3
:100A7000FF4CFCF24C80F4C952D004004CA6F2C9E1
:100A800053D00100C954D00100C957D0230020041D
:100A9000F5B01A002088F42009F5B01100A000A5D7
:100AA000FB91F7A901209AF4A9574CAFF44C80F4BC
:100AB000C93FD00600A21D4C82F4A21920D4F64CE6
:100AC000FCF2A5FB85F7A5FC85F860A5FB85F9A5DB
:100AD000FC85FA601865F785F7900300E6F8603842
:100AE000A5F7E5F9A5F8E5FA60A20020D7F4A9205A
:100AF00020D7F4A5F820CBF4A5F720CBF4A920202B
:100B0000D7F44C00F3484A4A4A4A20D4F46820B348
:100B1000F69D8002E886F660E4F690020060BD80F3
:100B200002E8C961900800C97BB00300295F186022
:100B300020DEF490020060C920F0F5FF1860A004E8
:100B4000D00300A00284FDA00084FB84FC20F6F406
:100B50002041F59002006006FB26FC06FB26FC0601
:100B6000FB26FC06FB26FC05FB85FBC6FDF00A0008
:100B700020DEF42041F590DFFF18602054F5900C42
:100B800000C941900300E907290F18603860C93A8D
:100B9000B00400C93060C947B00400C941601860A2
:100BA000C920900800C97FB003003860186020C0D9
:100BB000F6A000B1F7AA20A4F620C0F6BD00F148C7
:100BC000482943F00B00A001B1F720A4F64C99F599
:100BD00020BDF620C0F668A82941C941F00600985A
:100BE0002903C903D00B00A002B1F720A4F64CBA28
:100BF000F520BDF6C8984820C0F6A000B1F7AABD00
:100C000000F0AABD01F285FBBD00F2208BF6208B1F
:100C1000F6208BF620C0F668482920F01100A000CD
:100C2000B1F7290709302027FFA92C2027FF6848A2
:100C3000100600A9282027FF68482903F02500484E
:100C4000C902D00600A9232027FFA9242027FF6876
:100C5000C903D00800A002B1F720A4F6A001B1F7A3
:100C600020A4F668482960C960D00600A92C202776
:100C7000FF6848A82940F01400A9242027FF98A065
:100C8000012920F00200C8A9722045FF68482910F8
:100C9000F00600A9412027FF68482908F00B00A9A9
:100CA0002C2027FFA9582027FF6848100600A929F3
:100CB0002027FF682904F00B00A92C2027FFA95941
:100CC0002027FF686048291F09402027FF6846FB4E
:100CD0006A46FB6A46FB6A46FB6A46FB6A60484A0C
:100CE0004A4A4A20ADF66820B3F64C27FF290FF890
:100CF0001869906940D86020C0F6A9204C27FFA948
:100D00007C4C27FFA90D2027FFA90A4C27FFBDE235
:100D1000F6D00200602027FFE84CD4F650433D0097
:100D20002053503D0020503D0020413D0020583DC3
:100D30000020593D000D0A3F000D0A4120787878C7
:100D400078206F70636F6465205B617267735D0903
:100D5000417373656D626C650D0A4420787878780C
:100D600020797979790909446973617373656D62D2
:100D70006C650D0A47205B787878785D0909476FC4
:100D8000746F0D0A4D20787878782079797979090F
:100D900009446973706C6179204D656D6F72790DCE
:100DA0000A52090909446973706C617920526567B8
:100DB0006973746572730D0A532E2E2E0909095337
:100DC0003139204C6F61640D0A54205B7878787853
:100DD0005D090954726163650D0A57207878787847
:100DE00020797909095772697465204D656D6F72B4
:100DF0007900435A49443131564E0102040810200B
:100E00004080000000000000000000000000000022
:100E100000000000000000000000000000000000D2
:100E200000000000000000000000000000000000C2
:100E300000000000000000000000000000000000B2
:100E400000000000000000000000000000000000A2
:1015300000000000000000000000D8A2FF9AE88E22
:1015400000028E01028E02028E0302A91F8D03FE8D
:10155000A9C98D02FEAD00FE5800A911D00300A953
:10156000134884FEAC030299420220B8FFCC020269
:10157000F0FBFF8C0302A9058D02FEA4FE686084C7
:10158000FEAC0002CC0102F0FBFFB9040220B8FF60
:101590008C0002A4FE604C8EF2488A489848D8BA63
:1015A000BD04012910D0EFFFAD01FE103F00482916
:1015B00010F01E00AC0202CC0302F01000B942028F
:1015C0008D00FE20B8FF8C02024C97FFA9018D020E
:1015D000FE682908F01600AD00FEAC010299040275
:1015E00020B8FFCC0002F004008C010268A868AAB1
:1015F0006840C8C03ED00300A000600000000000AA
:1016000000000000000000000000000000000000DA
:1016100000000000000000000000000000000000CA
:1016200000000000000000000000000000000000BA
:10163000000000005CFF00FF5FFF1C4C0000824CBC
:10164000065E504C0600824C0608184C4C00804C3C
:10165000065E224C3800804C06084004000012044C
:10166000605E58046000120460081604040012044E
:10167000605E6A04300012046008643600000036C0
:10168000485E4E3648003E3648081E363600003664
:10169000485E2636540000364808660200007A028A
:1016A000625E560262003E026208200202007A0276
:1016B000625E6E025C003E0262081A72000078727E
:1016C0007670341286007872760A0C727200787224
:1016D00076708A7288007A727A0A464244004642DC
:1016E00044707E427C004642440A0E42420046421A
:1016F0004470284284004642440A2E2A00002E2AC2
:1017000030703C2A328C2E2A300A142A2A00002AF1
:101710003070242A5274002A300A2C6800002C6889
:1017200038703A684A002C68380A10686800006807
:1017300038706C685A000068380A0289020001019A
:1017400001010002100003030361408581000105CF
:10175000050100071000030B0B6103890000010164
:1017600001010002100003030361408581000505AB
:101770000501000710000B0B0B6100890000000140
:101780000101000210000303036140858100000590
:10179000050100070000000B0B610089000001013A
:1017A00001010002100083030361408581000505EB
:1017B0000501000700008B0B0B614089000001014F
:1017C000010100020000030303614085810005055B
:1017D000050100070000030B0B61028902000101F3
:1017E000010100020000030303614085810005053B
:1017F0000501000700000B0B0761028900000101D1
:10180000010100020000030303614085810000051F
:10181000050100070000000B0B61028900000101B7
:1018200001010002000003030361408581000005FF
:10183000050100070000000B0B61FF7F810CC11147
:1018400061324248424C620C624CA2442251C215A1
:10185000A22502324206422EC20EC24E830D8311D1
:1018600083258359A34103620366A40CA460A46486
:10187000E549C90DC961C965AA416A4A8C048C60F1
:101880008C646C4AEE414F061005104110611065E2
:101890009005904190619065B209F231F24992262B
:1018A000924E530CB30CB310B324B3099306934276
:1018B00093629366936A34603464540A740A74625F
:1018C0001407144F34073724586885F26885F16887
:1018D00085F06885F33868E90285F468E90085F5E4
:1018E00020C6F6A20020D0F6A5F520A0F6A5F4208B
:1018F000A0F6A20D20D0F6A5F020A0F6A21120D0CF
:10190000F6A5F120A0F6A21520D0F6A5F220A0F6AB
:10191000A20920D0F6A207A02EBDBCF724F3F00444
:1019200000BCB4F7982027FFCA10ECFFA20420D017
:10193000F6BA8A20A0F664F620C6F6A92E2027FF64
:10194000A200E4F6F00B00BD80022027FFE880F241
:10195000FF2020FF2045FFC91BD00400F0D8FFC99D
:1019600008D01500E000F00D00482027FF20BCF64D
:10197000682027FFCA80DDFFC90DF02A00C97FD08B
:101980000600A908D0DEFF900900A9072027FF80E4
:10199000C3FFC92090F4FFE07FB0EFFF9D8002E815
:1019A0002027FF80AFFF2025FF86F6A20020F4F459
:1019B000B084FFC941D00100C944D03A002002F5EB
:1019C000B031002086F4208FF42002F5B00700200B
:1019D0008FF4800300E6FA20C6F6A5F820A0F6A54D
:1019E000F720A0F62070F52098F420A3F430E8FF4B
:1019F0004CFCF24C7EF4C947D01100A5F548A5F483
:101A000048A5F348A5F0A6F1A4F240C94DD0660060
:101A10002002F5B05D002086F4208FF42002F5B09E
:101A20000700208FF4800300E6FA20C6F6A5F82010
:101A3000A0F6A5F720A0F6A00020BCF6B1F7C820BC
:101A4000A0F6C010D0F3FF20BCF620C1F6A000B174
:101A5000F7C82062F5B00300A92E2027FFC010D0E0
:101A6000EEFF20C1F6982098F420A3F430BCFF4C80
:101A7000FCF24C7EF4C952D004004CA6F2C953D0FB
:101A80000100C954D00100C957D023002002F5B08D
:101A90001A002086F42007F5B01100A000A5FB91E4
:101AA000F7A9012098F4A9574CADF44C7EF4C93F36
:101AB000D00600A21D800300A21920D0F64CFCF233
:101AC000A5FB85F7A5FC85F860A5FB85F9A5FC8538
:101AD000FA601865F785F7900300E6F86038A5F717
:101AE000E5F9A5F8E5FA60A20020D5F4A92020D5F3
:101AF000F4A5F820C9F4A5F720C9F4A92020D5F44D
:101B00004CFEF2484A4A4A4A20D2F46820AFF69D79
:101B10008002E886F660E4F690020060BD8002E88C
:101B2000C961900800C97BB00300295F186020DC00
:101B3000F490020060C920F0F5FF1860A004D00303
:101B400000A00284FD64FB64FC20F4F4203DF590C9
:101B500002006006FB26FC06FB26FC06FB26FC06B4
:101B6000FB26FC05FB85FBC6FDF00A0020DCF4200B
:101B70003DF590DFFF18602050F5900C00C94190B2
:101B80000300E907290F18603860C93AB00400C99A
:101B90003060C947B00400C941601860C92090088E
:101BA00000C97FB003003860186020BCF6A000B107
:101BB000F7AA20A0F620BCF6BD00F148482943F062
:101BC0000B00A001B1F720A0F680040020B9F62098
:101BD000BCF668A82941C941F00600982903C90349
:101BE000D00B00A002B1F720A0F680040020B9F6C7
:101BF000C8984820BCF6A000B1F7AABD00F0AABD65
:101C000001F285FBBD00F22087F62087F62087F6DB
:101C100020BCF668482920F01100A000B1F7290780
:101C200009302027FFA92C2027FF6848100600A9AB
:101C3000282027FF68482903F0250048C902D0065C
:101C400000A9232027FFA9242027FF68C903D00863
:101C500000A002B1F720A0F6A001B1F720A0F6681D
:101C6000482960C960D00600A92C2027FF6848A831
:101C70002940F01400A9242027FF98A0012920F072
:101C80000200C8A9722045FF68482910F00600A983
:101C9000412027FF68482908F00B00A92C2027FFC6
:101CA000A9582027FF6848100600A9292027FF68A7
:101CB0002904F00B00A92C2027FFA9592027FF6831
:101CC0006048291F09402027FF6846FB6A46FB6AD7
:101CD00046FB6A46FB6A46FB6A60484A4A4A4A2013
:101CE000A9F66820AFF64C27FF290FF8186990690C
:101CF00040D86020BCF6A9204C27FFA97C4C27FFC8
:101D0000A90D2027FFA90A4C27FFBDDEF6D002004F
:101D1000602027FFE880F3FF50433D002053503DF3
:101D20000020503D0020413D0020583D0020593DFD
:101D3000000D0A3F000D0A412078787878206F70F6
:101D4000636F6465205B617267735D0941737365DE
:101D50006D626C650D0A44207878787820797979FD
:101D6000790909446973617373656D626C650D0A65
:101D700047205B787878785D0909476F746F0D0AA2
:101D80004D207878787820797979790909446973D0
:101D9000706C6179204D656D6F72790D0A52090979
:101DA00009446973706C6179205265676973746561
:101DB00072730D0A532E2E2E090909533139204C06
:101DC0006F61640D0A54205B787878785D09095456
:101DD000726163650D0A57207878787820797909DF
:101DE000095772697465204D656D6F727900435AA9
:101DF00049443131564E0102040810204080000051
:101E000000000000000000000000000000000000D2
:101E100000000000000000000000000000000000C2
:101E200000000000000000000000000000000000B2
:101E300000000000000000000000000000000000A2
:1025300000000000000000000000D8A2FF9AE88E12
:1025400000028E01028E02028E0302A91F8D03FE7D
:10255000A9C98D02FEAD00FE5800A911D00300A943
:10256000134884FEAC030299420220B3FFCC02025E
:10257000F0FBFF8C0302A9058D02FEA4FE686084B7
:10258000FEAC0002CC0102F0FBFFB9040220B3FF55
:102590008C0002A4FE604C8EF248DA5ABABD0401E7
:1025A0002910D0F2FFAD01FE103F00482910F01EA7
:1025B00000AC0202CC0302F01000B942028D00FE12
:1025C00020B3FF8C0202800600A9018D02FE68295B
:1025D00008F01600AD00FEAC010299040220B3FF22
:1025E000CC0002F004008C01027AFA6840C8C03EB8
:1025F000D00300A000600000000000000000000008
:1026000000000000000000000000000000000000CA
:1026100000000000000000000000000000000000BA
:1026200000000000000000000000000000000000AA
:0A263000000000005CFF00FF5FFFE8
:020000040030CA
:0100010038C6
:0100020018E5
:0100030028D4
:01000500BD3D
:010006008178
:010008000FE8
:01000900C036
:01000A000FE6
:01000B00E014
:01000C000FE4
:01000D0040B2
:00000001FF
