:020000040000FA
:0400000024EF00F0F9
:020004000000FA
:080008009E92100E0C240C6EF8
:100010001CBE126E000E0D220D6E1CBE136E000E65
:1000200014220E6E1CBE146E000E15220F6E1CBE26
:10003000156E000E1622106E1CBE166E000E1722D4
:10004000116E1CBE176E11000F01386B396B3A6BC5
:100050003B6B3C6B8B6A8D6A96908D9094828B92F1
:1000600096928D8294908B80700ED36E9B8CD3A4CD
:10007000FED7949C948E080EB86E200EAC6E900E37
:10008000AB6EAE50AE509496949A948894942A0E87
:10009000C66EC950C950790EBB6E3F0EBC6ABA6EAF
:1000A0009E92006A400E8D92000000000000000049
:1000B000000000008D820000000000000000E82E1B
:1000C000F2D79680000000000000000081D88D82E9
:1000D00000008050FC0AFAE18150FF0AF7E184A495
:1000E000F5D7956A000E8C6E0000000071D88D82E5
:1000F00000008050FD0AEAE18150FF0AE7E184A494
:10010000E5D7956A100E8C6E0000000061D86C0E69
:1001100065D85ED8FF0E62D85BD8FF0E5FD858D87E
:100120008150100A04E10006FF0E58D851D8000E85
:1001300055D84ED88150016E100E50D800BE08D050
:1001400001500CE0480EF66E060EF76EF86A0BD002
:10015000480EF66E160EF76EF86A05D0480EF66E6B
:10016000260EF76EF86A026AF00E036E090030D8A8
:10017000A90E34D82DD8F55031D82AD88D0E2ED8C6
:1001800027D802502BD824D8035028D821D833D8C8
:10019000022AECE11DD84C0E21D81AD8000E1ED828
:1001A00017D8100E1BD8032AE1E112D86C0E16D80E
:1001B0000FD8FC0E13D80CD8FF0E10D800AE03D009
:1001C00007D8FF0E0BD804D810D802D80ED819D0F3
:1001D0008D9295688B800000000012008D8284B49F
:1001E000956A8C6E0000000012008D8284B48B90A2
:1001F0000000000012008D8284A48B90000000009B
:100200001200056A066A076A086A096A0A6A0B6ABE
:100210000C6A0D6A0E6A0F6A106A116A126A136A12
:10022000146A156A166A176A186A196A1A6A1B6AC2
:100230001C6A1D6A1E6AF28E8D9295688B809E5094
:10024000380B05100614D8A49492D8B494828D82E9
:1002500000008150FE0A02E08B90EED78050E8BE8D
:10026000FBD7E8BCF9D784A44009020DE8D985D0B2
:100270008FD0A3D0B5D081D08BD09FD0B1D07DD03E
:1002800087D09BD0ADD079D083D097D0A9D003D1DF
:100290000DD126D131D1FFD009D122D12DD1FBD022
:1002A00005D11ED129D1F7D001D11AD125D131D113
:1002B0003DD148D153D15ED169D174D17ED188D19D
:1002C00092D19CD1A7D1B1D152D051D050D04FD0E2
:1002D0004ED04DD04CD04BD04AD049D048D047D04A
:1002E00046D045D044D043D042D041D040D04BD06E
:1002F0005DD069D07BD047D059D065D077D043D07E
:1003000055D061D073D03FD051D05DD06FD0C9D01F
:10031000D8D0ECD0F7D0C5D0D4D0E8D0F3D0C1D06D
:10032000D0D0E4D0EFD0BDD0CCD0E0D0EBD0F7D05F
:1003300003D10ED119D124D12FD13AD144D14ED1EC
:1003400058D162D16DD177D112D011D010D012D046
:1003500011D010D00FD00ED00DD00CD00BD00AD0B1
:1003600009D008D007D006D005D004D003D0FF0EA6
:10037000956A8C6E000000005FD7AE50956A8C6E57
:100380000000000059D78350AD6E0000000054D724
:10039000E86A9EBA88099EB89009ABB20409ABB46A
:1003A0000209956A8C6E0000000046D7076A086A49
:1003B000069A0698000000003FD70752956A8C6E97
:1003C0000000000039D78350076E069A069807A0F0
:1003D00033D707A2068A0C0B040AD8B406882CD798
:1003E0000852956A8C6E0000000026D78350086E74
:1003F0000F0B0A0D24D9210EAF6E000EB06E1CD764
:100400007F0EAF6E380EB06E17D7540EAF6ED00E93
:10041000B06E12D70A0EAF6E8E0EB06E0DD7990E5B
:10042000AF6E740EB06E08D7290EAF6E680EB06E48
:1004300003D7140EAF6E340EB06EFED6090EAF6E3B
:100440001A0EB06EF9D6040EAF6E0D0EB06EF4D665
:10045000AD0EAF6E080EB06EEFD6810EAF6E060E0B
:10046000B06EEAD6560EAF6E040EB06EE5D6400EF4
:10047000AF6E030EB06EE0D62A0EAF6E020EB06EF7
:10048000DBD69F0EAF6E010EB06ED6D6CF0EAF6E1E
:10049000000EB06ED1D6C950956A8C6E0000000077
:1004A000CBD68350C96E00000000C6D60950C7B035
:1004B0008009C7B42009956A8C6E00000000000016
:1004C000BBD683505F0B096EC69AC79CE8B2C78C37
:1004D000C79EE8B0C78EC68A000000000000ACD6F8
:1004E0000A50956A8C6E00000000A6D683503F0B20
:1004F0000A6EC86E0000A0D60B52956A8C6E000082
:1005000000009AD683500B6E8B18040B8B1A0000D8
:1005100093D61250956A8C6E000000008DD68350E1
:10052000F10B0C6E126E0000000086D61350956A17
:100530008C6E0000000080D683500D6E136E00009C
:1005400000007AD61450956A8C6E0000000074D6B4
:1005500083500E6E146E000000006ED61550956A22
:100560008C6E0000000068D683500F6E156E000080
:10057000000062D61650956A8C6E000000005CD6B2
:100580008350106E166E0000000056D61750956A04
:100590008C6E0000000050D68350116E176E000064
:1005A00000004AD61850956A8C6E0000000044D6B0
:1005B0008350186E000000003FD61950956A8C6E6B
:1005C0000000000039D68350196E0000000034D6B8
:1005D0001A50956A8C6E000000002ED683501A6E59
:1005E0000000000029D61B50956A8C6E00000000A8
:1005F00023D683501B6E000000001ED61C50956A47
:100600008C6E0000000018D68350CF0B1C6E0000CB
:10061000000012D61D50956A8C6E000000000CD6AA
:1006200083501D6E0000000007D61E50956A8C6E28
:100630000000000001D61E6A00000000FDD5F35046
:08064000FD26F450FE22120019
:08064800FF7F810CC11161323A
:100650004248424C620C624CA2442251C215A2256F
:1006600002324206422EC20EC24E830D83118325F2
:100670008359A34103620366A40CA460A464E54902
:10068000C90DC961C965AA416A4A8C048C608C6431
:100690006C4AEE414F06100510411061106590053F
:1006A000904190619065B209F231F2499226924EE2
:1006B000530CB30CB310B324B30993069342936263
:1006C0009366936A34603464540A740A746214073B
:1006D000144F3407372478D8A2FF9AE88E08028E88
:1006E00009028E0A028E0B02A91F8D03FEA9C98D75
:1006F00002FEAD00FE582046FEA20020ADF4000030
:100700004CB6F06885F26885F16885F06885F33845
:1007100068E90285F468E90085F5582046FEA212D2
:1007200020ADF4A5F52087F4A5F42087F4A21F20BE
:10073000ADF4A5F02087F4A22320ADF4A5F1208725
:10074000F4A22720ADF4A5F22087F4A21B20ADF47B
:10075000A207A02EBD7AF524F3F003BC72F5982011
:10076000A6FECA10EDA21620ADF4BA8A2087F4A91D
:100770000085F62046FEA92E20A6FEA200E4F6B0D3
:100780000ABD880220A6FEE84C35F1A91120A6FE7C
:1007900020C3FE9D8802C90DF036C91BD002F0CFE0
:1007A000C97FD002A908C908D013E000F00C482086
:1007B000A6FE20A3F46820A6FECA4C48F1C92090EA
:1007C00008A90720A6FE4C48F120A6FEE84C48F1F7
:1007D00086F6A91320A6FEA20020F5F2B091C90D5D
:1007E000F08DC944D0362000F3B02E208BF2209437
:1007F000F22000F3B0062094F24CB6F1E6FA20465F
:10080000FEA5F82087F4A5F72087F42066F3209D45
:10081000F220A7F230E84C27F14C83F2C947D01000
:10082000A5F548A5F448A5F348A5F0A6F1A4F24023
:10083000C94DD05F2000F3B057208BF22094F220F6
:1008400000F3B0062094F24C04F2E6FA2046FEA52E
:10085000F82087F4A5F72087F4A00020A3F4B1F7CF
:10086000C82087F4C010D0F320A3F420A8F4A0007F
:10087000B1F7C8205AF3B002A92E20A6FEC010D0AE
:10088000EF20A8F498209DF220A7F230BF4C27F16A
:100890004C83F2C952D0034CD3F0C953D000C9578E
:1008A000D0202000F3B018208BF22004F3B010A069
:1008B00000A5FB91F7A901209DF2A9574CB1F24C7C
:1008C00083F2C93FD005A22F4C85F2A22B20ADF4B4
:1008D0004C27F1A5FB85F7A5FC85F860A5FB85F9FC
:1008E000A5FC85FA601865F785F79002E6F8603890
:1008F000A5F7E5F9A5F8E5FA60A20020D9F2A9204C
:1009000020D9F2A5F820CDF2A5F720CDF2A920201C
:10091000D9F24C2BF1484A4A4A4A20D6F26820962E
:10092000F49D8802E886F660E4F6900160BD8802D6
:10093000E8C9619006C97BB002295F186020E0F227
:10094000B005C92018F0F660A004D002A00284FD12
:10095000A00084FB84FC20F5F22039F390016006AE
:10096000FB26FC06FB26FC06FB26FC06FB26FC05FC
:10097000FB85FBC6FDF00820E0F22039F390E0187B
:1009800060204AF3900AC9419002E907290F1860D4
:100990003860C93AB003C93060C947B003C9416083
:1009A0001860C9209006C97FB0023860186020A383
:1009B000F4A000B1F7AA2087F420A3F4BD00FD48FD
:1009C000482943F00AA001B1F72087F44C8AF320AC
:1009D000A0F420A3F468A82941C941F0059829038F
:1009E000C903D00AA002B1F72087F44CA9F320A0D4
:1009F000F4C8984820A3F4A000B1F7AABD00FCAA4F
:100A0000BD01F085FBBD00F0206EF4206EF4206E79
:100A1000F420A3F468482920F010A000B1F72907BA
:100A2000093020A6FEA92C20A6FE68481005A9289A
:100A300020A6FE68482903F02248C902D005A92350
:100A400020A6FEA92420A6FE68C903D007A002B1F3
:100A5000F72087F4A001B1F72087F468482960C91E
:100A600060D005A92C20A6FE6848A82940F012A94C
:100A70002420A6FE98A0012920F001C8A97220A672
:100A8000FE68482910F005A94120A6FE68482908FB
:100A9000F00AA92C20A6FEA95820A6FE6848100539
:100AA000A92920A6FE682904F00AA92C20A6FEA9DF
:100AB0005920A6FE686048291F094020A6FE684606
:100AC000FB6A46FB6A46FB6A46FB6A46FB6A60486D
:100AD0004A4A4A4A2090F4682096F44CA6FE290F10
:100AE000F81869906940D86020A3F4A9204CA6FEAC
:100AF000A97C4CA6FEBDBAF4D0016020A6FEE84C4D
:100B0000ADF4426F6F742036353032205B31382EB1
:100B100030345D0050433D002053503D0020503D97
:100B20000020413D0020583D0020593D000D0A3F66
:100B3000000D0A4420787878782079797979090944
:100B4000446973617373656D626C650D0A47205B60
:100B5000787878785D0909476F746F0D0A4D2078B1
:100B600078787820797979790909446973706C61AA
:100B700079204D656D6F72790D0A52090909446932
:100B800073706C6179205265676973746572730D57
:100B90000A532E2E2E090909533139204C6F6164F6
:100BA0000D0A572078787878207979090957726981
:100BB0007465204D656D6F727900435A4944313137
:100BC000564E010204081020408000000000000082
:100BD0000000000000000000000000000000000015
:100BE0000000000000000000000000000000000005
:100BF00000000000000000000000000000000000F5
:100C000000000000000000000000000000000000E4
:1012400000000000000000001C4C0000004C0600E4
:10125000504C0600004C0600184C0000004C0600E4
:10126000224C3800004C06004004000012046000CC
:1012700058046000120460001604000012046000AC
:101280006A04300012046000643600000036480032
:101290004E3648003E3648001E36000000364800F4
:1012A0002636000000364800660200000002620098
:1012B000560262003E02620020020000000262004C
:1012C0006E02000000026200007200007872760078
:1012D00034128600787276000C7200007872760004
:1012E0008A72880000720000464244004642440070
:1012F0007E427C00464244000E42000046424400CA
:1013000028428400464244002E2A00002E2A300043
:101310003C2A32002E2A3000142A0000002A300015
:10132000242A0000002A30002C6800002C683800B5
:101330003A684A002C6838001068000000683800DD
:101340006C6800000068380002890200000101009A
:1013500000021000000303004085000000050500A6
:1013600000071000000B0B000389000001010100C1
:10137000000210000303030040850000050505007E
:10138000000710000B0B0B0000890000000101009A
:101390000002100003030300408500000005050063
:1013A00000070000000B0B00008900000001010095
:1013B00000021000830303004085000000050500C3
:1013C00000070000000B0B00008900000101010074
:1013D000000200000303030040850000050505002E
:1013E00000070000000B000002890200010101005B
:1013F000000200000303030040850000050505000E
:10140000000700000B0B070002890000010101002A
:1014100000020000030303004085000000050500F2
:1014200000070000000B0B00028900000101010011
:1014300000020000030303004085000000050500D2
:1014400000070000000B0B0000000000000000007F
:10145000000000000000000000000000000000008C
:10146000000000000000000000000000000000007C
:10147000000000000000000000000000000000006C
:1014800000000000000000004CA6FE4CC3FEA90DA9
:1014900020A6FEA90A4CA6FE488A489848D8BABD9C
:1014A00004012910F0034CBBF0AD01FE103A4829AD
:1014B00010F01CAC0A02CC0B02F00FB94A028D00EE
:1014C000FE20D9FE8C0A024C87FEA9018D02FE681F
:1014D0002908F014AD00FEAC0902990C0220D9FED7
:1014E000CC0802F0038C090268A868AA6840488406
:1014F000FEAC0B02994A0220D9FECC0A02F0FB8C0A
:101500000B02A9058D02FEA4FE686084FEAC0802F1
:10151000CC0902F0FBB90C0220D9FE8C0802A4FE13
:1015200060C8C03E9002A000600000000000000003
:1015300000000000000000000000000000000000AB
:10154000000000000000000000000000000000009B
:10155000000000000000000000000000000000008B
:10156000000000000000000000000000000000007B
:10157000000000000000000000000000000000006B
:10158000000000000000000000000000000000005B
:10159000000000000000000000000000000000004B
:1015A000000000000000000000000000000000003B
:1015B000000000000000000000000000000000002B
:1015C000000000000000000000000000000000001B
:1015D000000000000000000000000000000000000B
:1015E00000000000000000000000000000000000FB
:1015F00000000000000000000000000000000000EB
:1016000000000000000000000000000000000000DA
:1016100000000000000000000000000000000000CA
:1016200000000000000000000000000000000000BA
:1016300000000000000000000000000000000000AA
:101640000000A5FE8EF050FEFF7F810CC1116132BB
:101650004248424C620C624CA2442251C215A2255F
:1016600002324206422EC20EC24E830D83118325E2
:101670008359A34103620366A40CA460A464E549F2
:10168000C90DC961C965AA416A4A8C048C608C6421
:101690006C4AEE414F06100510411061106590052F
:1016A000904190619065B209F231F2499226924ED2
:1016B000530CB30CB310B324B30993069342936253
:1016C0009366936A34603464540A740A746214072B
:1016D000144F3407372478D8A2FF9AE88E08028E78
:1016E00009028E0A028E0B02A91F8D03FEA9C98D65
:1016F00002FEAD00FE582046FEA200209FF400002E
:1017000080FC6885F26885F16885F06885F3386843
:10171000E90285F468E90085F5582046FEA2132009
:101720009FF4A5F52079F4A5F42079F4A220209F58
:10173000F4A5F02079F4A224209FF4A5F12079F4F7
:10174000A228209FF4A5F22079F4A21C209FF4A2E5
:1017500007A02EBD6CF524F3F003BC64F59820A01F
:10176000FECA10EDA217209FF4BA8A2079F464F61D
:101770002046FEA92E20A0FEA200E4F6B009BD88F6
:101780000220A0FEE880F3A91120A0FE20BDFE9D4E
:101790008802C90DF033C91BD002F0D2C97FD00234
:1017A000A908C908D012E000F00C4820A0FE20953E
:1017B000F46820A0FECA80D4C9209007A90720A001
:1017C000FE80C920A0FEE880C386F6A91320A0FEF3
:1017D000A20020EBF2B097C90DF093C944D0352098
:1017E000F6F2B02D2081F2208AF220F6F2B0052028
:1017F0008AF28002E6FA2046FEA5F82079F4A5F7E1
:101800002079F4205AF32093F2209DF230E84C2600
:10181000F14C79F2C947D010A5F548A5F448A5F3D5
:1018200048A5F0A6F1A4F240C94DD05E20F6F2B072
:10183000562081F2208AF220F6F2B005208AF2804A
:1018400002E6FA2046FEA5F82079F4A5F72079F4FF
:10185000A0002095F4B1F7C82079F4C010D0F3208F
:1018600095F4209AF4A000B1F7C8204EF3B002A975
:101870002E20A0FEC010D0EF209AF4982093F220E2
:101880009DF230BF4C26F14C79F2C952D0034CD2B4
:10189000F0C953D000C957D02020F6F2B0182081EB
:1018A000F220FAF2B010A000A5FB91F7A901209355
:1018B000F2A9574CA7F24C79F2C93FD004A230806C
:1018C00002A22C209FF44C26F1A5FB85F7A5FC85F0
:1018D000F860A5FB85F9A5FC85FA601865F785F722
:1018E0009002E6F86038A5F7E5F9A5F8E5FA60A2F8
:1018F0000020CFF2A92020CFF2A5F820C3F2A5F74F
:1019000020C3F2A92020CFF24C28F1484A4A4A4A83
:1019100020CCF2682088F49D8802E886F660E4F620
:10192000900160BD8802E8C9619006C97BB00229B8
:101930005F186020D6F2B005C92018F0F660A00448
:10194000D002A00284FD64FB64FC20EBF2202DF3A6
:1019500090016006FB26FC06FB26FC06FB26FC0627
:10196000FB26FC05FB85FBC6FDF00820D6F2202DEA
:10197000F390E01860203EF3900AC9419002E90715
:10198000290F18603860C93AB003C93060C947B040
:1019900003C941601860C9209006C97FB002386051
:1019A00018602095F4A000B1F7AA2079F42095F4EE
:1019B000BD00FD48482943F009A001B1F72079F4A2
:1019C00080032092F42095F468A82941C941F005CC
:1019D000982903C903D009A002B1F72079F4800344
:1019E0002092F4C898482095F4A000B1F7AABD0051
:1019F000FCAABD01F085FBBD00F02060F42060F47E
:101A00002060F42095F468482920F010A000B1F778
:101A10002907093020A0FEA92C20A0FE6848100547
:101A2000A92820A0FE68482903F02248C902D00551
:101A3000A92320A0FEA92420A0FE68C903D007A0E6
:101A400002B1F72079F4A001B1F72079F4684829B0
:101A500060C960D005A92C20A0FE6848A82940F0E4
:101A600012A92420A0FE98A0012920F001C8A97283
:101A700020A0FE68482910F005A94120A0FE684872
:101A80002908F00AA92C20A0FEA95820A0FE684829
:101A90001005A92920A0FE682904F00AA92C20A07D
:101AA000FEA95920A0FE686048291F094020A0FE19
:101AB0006846FB6A46FB6A46FB6A46FB6A46FB6A67
:101AC00060484A4A4A4A2082F4682088F44CA0FEC2
:101AD000290FF81869906940D8602095F4A9204C26
:101AE000A0FEA97C4CA0FEBDABF4D0016020A0FEFE
:101AF000E880F4426F6F74203635433032205B311A
:101B0000382E30345D0050433D002053503D0020BE
:101B1000503D0020413D0020583D0020593D000D22
:101B20000A3F000D0A44207878787820797979790D
:101B30000909446973617373656D626C650D0A47C9
:101B4000205B787878785D0909476F746F0D0A4DCE
:101B500020787878782079797979090944697370DF
:101B60006C6179204D656D6F72790D0A5209090912
:101B7000446973706C61792052656769737465722A
:101B8000730D0A532E2E2E090909533139204C6F3B
:101B900061640D0A57207878787820797909095797
:101BA00072697465204D656D6F727900435A4944BE
:101BB0003131564E01020408102040800000000020
:101BC0000000000000000000000000000000000015
:101BD0000000000000000000000000000000000005
:101BE00000000000000000000000000000000000F5
:101BF00000000000000000000000000000000000E5
:1022400000000000000000001C4C0000824C065EF4
:10225000504C0600824C0608184C4C00804C065E20
:10226000224C3800804C0608400400001204605ED6
:102270005804600012046008160404001204605E32
:102280006A04300012046008643600000036485EBC
:102290004E3648003E3648081E3636000036485E48
:1022A0002636540000364808660200007A02625E54
:1022B000560262003E026208200202007A02625E5A
:1022C0006E025C003E0262081A720000787276703C
:1022D000341286007872760A0C7272007872767008
:1022E0008A7288007A727A0A4642440046424470F2
:1022F0007E427C004642440A0E42420046424470FE
:10230000284284004642440A2E2A00002E2A3070B9
:102310003C2A328C2E2A300A142A2A00002A3070D5
:10232000242A5274002A300A2C6800002C68387065
:102330003A684A002C68380A1068680000683870EB
:102340006C685A000068380A028902000101010124
:1023500000021000030303614085810001050501AF
:1023600000071000030B0B6103890000010101014C
:10237000000210000303036140858100050505018B
:10238000000710000B0B0B61008900000001010128
:102390000002100003030361408581000005050170
:1023A00000070000000B0B61008900000101010122
:1023B00000021000830303614085810005050501CB
:1023C000000700008B0B0B61408900000101010137
:1023D000000200000303036140858100050505013B
:1023E00000070000030B0B610289020001010101DB
:1023F000000200000303036140858100050505011B
:10240000000700000B0B07610289000001010101B8
:1024100000020000030303614085810000050501FF
:1024200000070000000B0B6102890000010101019F
:1024300000020000030303614085810000050501DF
:1024400000070000000B0B6100000000000000000E
:10245000000000000000000000000000000000007C
:10246000000000000000000000000000000000006C
:10247000000000000000000000000000000000005C
:1024800000000000000000004CA0FE4CBDFEA90DA5
:1024900020A0FEA90A4CA0FE48DA5ABABD040129C0
:1024A00010F0034CBAF0AD01FE1039482910F01BB2
:1024B000AC0A02CC0B02F00EB94A028D00FE20D30A
:1024C000FE8C0A028005A9018D02FE682908F0141D
:1024D000AD00FEAC0902990C0220D3FECC0802F03C
:1024E000038C09027AFA68404884FEAC0B02994AD0
:1024F0000220D3FECC0A02F0FB8C0B02A9058D0250
:10250000FEA4FE686084FEAC0802CC0902F0FBB9B0
:102510000C0220D3FE8C0802A4FE60C8C03E9002CC
:10252000A0006000000000000000000000000000AB
:10253000000000000000000000000000000000009B
:10254000000000000000000000000000000000008B
:10255000000000000000000000000000000000007B
:10256000000000000000000000000000000000006B
:10257000000000000000000000000000000000005B
:10258000000000000000000000000000000000004B
:10259000000000000000000000000000000000003B
:1025A000000000000000000000000000000000002B
:1025B000000000000000000000000000000000001B
:1025C000000000000000000000000000000000000B
:1025D00000000000000000000000000000000000FB
:1025E00000000000000000000000000000000000EB
:1025F00000000000000000000000000000000000DB
:1026000000000000000000000000000000000000CA
:1026100000000000000000000000000000000000BA
:1026200000000000000000000000000000000000AA
:10263000000000000000000000000000000000009A
:1026400000009FFE8EF050FEFF7F810CC1116132B1
:10265000620C624CA2442251A225C21502324206EB
:10266000422E4232C20EC24E830D831183258359FE
:10267000A341E34103620366A40CA460A464E5499A
:10268000C90DC961C965AA31AA416A326A4A8C0476
:102690008C608C646C4ACD3ACD42EE414F06B0045A
:1026A000B024B048100510091011102D1041106110
:1026B0001065900590099011904190619065B2402D
:1026C000F231F24992269232924E530CB30CB3106F
:1026D000B324B3409306934293629366936A346043
:1026E00034647410744C940C540A740A740E74623A
:1026F0001407144F1467340734633724973458048D
:10270000781478D838FBA2FF9A9C0A029C0B029C92
:1027100008029C0902A91F8D03FEA9C98D02FEAD06
:1027200000FE582046FEA200209BF2000080FC180C
:10273000FB66E0C23085E286E484E67B85E8E22041
:1027400024E030006885E1FACACA86ECBA86EA5805
:102750002046FEA21400209BF2A5EDEBA5EC207410
:10276000F2A21800209BF2A93024E010011A20AF39
:10277000FEA21C00209BF2A5E3EBA5E22042F2A200
:102780002000209BF2A5E5EBA5E4205BF2A224004B
:10279000209BF2A5E7EBA5E6205BF2A22800209B98
:1027A000F2A20700A02E00BD72F324E1F003BC6A80
:1027B000F39820AFFECA10ECA22C00209BF2A5E9F2
:1027C000EBA5E82074F2A23100209BF2A5EBEBA56B
:1027D000EA2074F264F0E2302046FEA92E20AFFE1B
:1027E000A200E4F0B009BD880220AFFEE880F3A9A2
:1027F0001120AFFE20D0FE9D8802C90DF033C91B09
:10280000D002F0D0C97FD002A908C908D012E000D8
:10281000F00C4820AFFE208FF26820AFFECA80D4B3
:10282000C920B007A90720AFFE80C920AFFEE8800D
:10283000C386F0A91320AFFEA2002037F2B095C9DD
:102840000DF091C944D000C947D000C94DD000C98E
:1028500052D0034C08F1C953D000C93FD004A23A6A
:102860008002A236209BF24C8CF1E4F0900160BD16
:102870008802E8C9619006C97BB002295F18602010
:1028800022F2B005C92018F0F6604824E0301FA9F4
:102890002024E1D0192093F2EB2079F2682079F21C
:1028A0004C97F24824E03006A91024E1F0E7EB2031
:1028B00079F22093F2682079F24C97F2EB2079F2CA
:1028C000EB484A4A4A4A2082F268290F0930C93A3D
:1028D000900269064CAFFEA920D0F9A95BD0F5A9FA
:1028E0005DD0F1BDA7F2F00620AFFEE880F56042B2
:1028F0006F6F7420363543383032205B31382E30DC
:10290000345D0050433D0020453D0020433D002004
:10291000583D0020593D0020503D002044503D00CE
:102920002053503D000D0A3F000D0A44207878786E
:102930007820797979790909446973617373656DD0
:10294000626C650D0A47205B787878785D090947E5
:102950006F746F0D0A4D20787878782079797979BD
:102960000909446973706C6179204D656D6F7279E6
:102970000D0A52090909446973706C617920526526
:10298000676973746572730D0A532E2E2E09090937
:10299000533139204C6F61640D0A5720787878786C
:1029A00020797909095772697465204D656D6F72D8
:1029B0007900435A4944584D564E010204081020EC
:1029C0004080000000000000000000000000000047
:1029D00000000000000000000000000000000000F7
:1029E00000000000000000000000000000000000E7
:1029F00000000000000000000000000000000000D7
:102A000000000000000000000000000000000000C6
:10324000000000000000000018542A54A254065444
:1032500064540660A254065414545454A0540654A2
:103260002054389CA0540654440442040E047804AC
:103270007004786E0E047804100404040E047804BC
:10328000840430A40E0478047C36B43650364C36B0
:103290005C364C6240364C361C3636364E364C3632
:1032A0002436689A40364C3680025A0294027A02DA
:1032B0006A027A7E40027A021E02020294027A02B6
:1032C0008802749E40027A02168C1A8C928C908C22
:1032D000340EA85E928C908C088C8C8C928C908C86
:1032E000AE8CAAAC948C948C4A4648464A464846D2
:1032F0009846966C4A4648460A46464A464A4846D2
:103300002646A6B04A4648462E2876282E2830283B
:103310003C2832B22E283028122828285828302855
:103320002228668E3E2830282C828A822C8238827F
:103330003A8252B62C8238820C828282568238823D
:10334000868272B8448238822E1E2E121010101AF5
:10335000242C0224000000082620181C101414221B
:10336000240602240004040A001E08121010101A79
:10337000242C0224000000082620181C14141422F7
:10338000240602240404040A241E2E122A10101AF1
:10339000242C0224000000082620181C2A141422C1
:1033A000240624240804040A241E24121010101ACF
:1033B000242C02240C0000082620181C14141422AB
:1033C000240624240E04040A261E28121010101AA3
:1033D000242C2424000000082620181C1414162273
:1033E000240624240004040A301E30121010101A7F
:1033F000242C2424000000082620181C1414162253
:10340000240624240404060A301E2E121010101A5A
:10341000242C2424000000082620181C2414142224
:10342000240624240C04040A301E2E121010101A34
:10343000242C2424000000082620181C2414142204
:10344000240624240E04040A0000000000000000EA
:10345000000000000000000000000000000000006C
:10346000000000000000000000000000000000005C
:10347000000000000000000000000000000000004C
:1034800000000000000000004CAFFE4CD0FEA90D73
:1034900020AFFEA90A4CAFFE48A3028910F00468D1
:1034A0004CE7F05A2070FE7A684048DA5A08E23059
:1034B0002070FE287AFA6840AD01FE1039482910C4
:1034C000F01BAC0A02CC0B02F00EB94A028D00FED2
:1034D00020EAFE8C0A028005A9018D02FE682908F7
:1034E000F014AD00FEAC0902990C0220EAFECC08F3
:1034F00002F0038C09026048DA5A08E230AC0B0291
:10350000994A0220EAFECC0A02F0FB8C0B02A905C4
:103510008D02FE287AFA6860DA5A08E230AC0802B6
:10352000CC0902F0FBB90C0220EAFE8C0802287AD2
:10353000FA60C8C03E9002A00060000000000000D9
:10354000000000000000000000000000000000007B
:10355000000000000000000000000000000000006B
:10356000000000000000000000000000000000005B
:10357000000000000000000000000000000000004B
:10358000000000000000000000000000000000003B
:10359000000000000000000000000000000000002B
:1035A000000000000000000000000000000000001B
:1035B000000000000000000000000000000000000B
:1035C00000000000000000000000000000000000FB
:1035D00000000000000000000000000000000000EB
:1035E00000000000000000000000000000000000DB
:1035F00000000000000000000000000000000000CB
:1036000000000000000000000000000000000000BA
:1036100000000000000000000000000000000000AA
:10362000000000000000000000000000F0FFE7F0D4
:10363000F0FFF0FF000062FE40400000F1FF0000DC
:08364000F1FFF1FFBAF050FEAA
:020000040030CA
:0100010038C6
:0100020018E5
:0100030028D4
:01000500BD3D
:010006008178
:010008000FE8
:01000900C036
:01000A000FE6
:01000B00E014
:01000C000FE4
:01000D0040B2
:00000001FF
